S00E0000426C696E6B792E73726563AD
S11300000C9461000C947E000C947E000C947E0091
S11300100C947E000C947E000C947E000C947E0064
S11300200C947E000C947E000C947E000C947E0054
S11300300C947E000C947E000C947E000C947E0044
S11300400C9432010C947E000C947E000C947E007F
S11300500C947E000C947E000C947E000C947E0024
S11300600C947E000C947E00000000002400270005
S11300702A0000000000250028002B0000000000DA
S113008023002600290004040404040404040202D6
S11300900202020203030303030301020408102003
S11300A0408001020408102001020408102000000E
S11300B00008000201000003040700000000000023
S11300C0000011241FBECFEFD8E0DEBFCDBF11E08A
S11300D0A0E0B1E0E8E9F8E002C005900D92A0309C
S11300E0B107D9F721E0A0E0B1E001C01D92A93029
S11300F0B207E1F70E9494000C944A040C940000A7
S11301001F93CF93DF93182FC8EED3E0812F0E9463
S1130110E003019721F02197C9F781E001C080E055
S1130120DF91CF911F9108950E94A40160E08DE0BA
S11301300E94320261E087E00E94320260E08CE0BB
S11301400E94320261E086E00E94320260E08BE0AD
S11301500E94320261E085E00E94320261E088E0A0
S11301600E94320261E089E00E94320261E08AE08A
S11301700E94320261E087E00E94590361E086E058
S11301800E94590361E085E00E94590361E088E020
S11301900E94590361E089E00E94590361E08AE00A
S11301A00E94590366246394712C88248394912CAF
S11301B044244394512C03C07E01680151018DE015
S11301C090E00E948000C82FD0E08CE090E00E9474
S11301D08000082F10E08BE090E00E948000282E21
S11301E0312C209791F4EA94EF2879F4FF24F394C6
S11301F0452809F0F12C4F2C512C6F2D87E00E94DB
S113020059036F2D88E00E9459030115110591F4DB
S1130210CA94CD2879F4FF24F394672809F0F12CCB
S11302206F2C712C6F2D86E00E9459036F2D89E08D
S11302300E9459032114310409F0BECFAA94AB28BB
S113024009F0BACFFF24F394892809F0F12C8F2CFC
S1130250912C6F2D85E00E9459036F2D8AE00E9436
S11302605903AACF1F920F9200905F000F9211249E
S11302708F939F93AF93BF93CF93DF93CDB7DEB7A5
S11302802597DEBFCDBF8091040190910501A09117
S11302900601B091070189839A83AB83BC83809163
S11302A008018D8389819A81AB81BC810196A11D4E
S11302B0B11D89839A83AB83BC838D818D5F8D83CC
S11302C08D818D3770F08D818D578D8389819A81D1
S11302D0AB81BC810196A11DB11D89839A83AB8337
S11302E0BC838D818093080189819A81AB81BC8113
S11302F08093040190930501A0930601B093070134
S11303008091000190910101A0910201B09103013B
S11303100196A11DB11D8093000190930101A0934A
S11303200201B09303010F900F900F900F900F9064
S1130330DF91CF91BF91AF919F918F910F900092D8
S11303405F000F901F901895CF93DF93CDB7DEB762
S1130350789484E490E024E430E0F9012081226080
S1130360FC01208384E490E024E430E0F90120815E
S11303702160FC01208385E490E025E430E0F9016C
S113038020812260FC01208385E490E025E430E0B4
S1130390F90120812160FC0120838EE690E02EE6A5
S11303A030E0F90120812160FC01208381E890E0A4
S11303B0FC01108281E890E021E830E0F90120811D
S11303C02260FC01208381E890E021E830E0F9011B
S11303D020812160FC01208380E890E020E830E067
S11303E0F90120812160FC01208381EB90E021EB65
S11303F030E0F90120812460FC01208380EB90E04F
S113040020EB30E0F90120812160FC0120838AE7A0
S113041090E02AE730E0F90120812460FC01208388
S11304208AE790E02AE730E0F90120812260FC01AC
S113043020838AE790E02AE730E0F90120812160F7
S1130440FC0120838AE790E02AE730E0F90120816B
S11304502068FC01208381EC90E0FC011082DF9194
S1130460CF910895CF93DF93CDB7DEB769970FB6D9
S1130470F894DEBF0FBECDBF888F698F888D882F1B
S113048090E086569F4F9A83898389819A81FC01E3
S113049084918B838B818C83888D882F90E08A57FD
S11304A09F4F9E838D838D819E81FC0184918F83D8
S11304B08F8188878885882309F494C08885882F4C
S11304C090E0880F991F88599F4F9A87898789855B
S11304D09A85FC0125913491CF013C872B879A871B
S11304E089878B859C859E878D878885882F90E05A
S11304F0880F991F8E589F4F988B8F878F85988967
S1130500FC0125913491CF013A8B298B988B8F87ED
S113051089899A899C8B8B8B898D882331F58FE50A
S113052090E0FC0180818D8BF8948D859E85FC0183
S11305308081982F8C8180958923282F8D859E8595
S1130540FC0120838B899C89FC018081982F8C81FC
S113055080958923282F8B899C89FC0120838FE532
S113056090E02D89FC0120833DC0898D823021F5E6
S11305708FE590E0FC0180818E8BF8948D859E85BB
S1130580FC018081982F8C8180958923282F8D856B
S11305909E85FC0120838B899C89FC0190818C8140
S11305A0292F282B8B899C89FC0120838FE590E0DF
S11305B02E89FC01208316C08FE590E0FC01808128
S11305C08F8BF8948D859E85FC0190818C81292FD9
S11305D0282B8D859E85FC0120838FE590E02F8953
S11305E0FC01208369960FB6F894DEBF0FBECDBF21
S11305F0DF91CF910895CF93DF931F92CDB7DEB7EC
S113060089838981882F90E08330910591F084302B
S1130610910534F48130910501F1029741F145C00F
S11306208730910571F188309105A9F1049759F04B
S11306303CC080E890E020E830E0F90120812F7789
S1130640FC01208332C080E890E020E830E0F9012A
S113065020812F7DFC01208328C084E490E024E4E1
S113066030E0F90120812F77FC0120831EC084E44F
S113067090E024E430E0F90120812F7DFC01208307
S113068014C080EB90E020EB30E0F90120812F775B
S1130690FC0120830AC080EB90E020EB30E0F901FC
S11306A020812F7DFC01208300000F90DF91CF91EA
S11306B00895CF93DF93CDB7DEB765970FB6F8945F
S11306C0DEBF0FBECDBF8C8B6D8B8C89882F90E0E5
S11306D082559F4F9A83898389819A81FC018491F1
S11306E08B838B818C838C89882F90E086569F4FD7
S11306F09E838D838D819E81FC0184918F838F8164
S113070088878C89882F90E08A579F4F9A8789879A
S113071089859A85FC0184918B878B858C878C8550
S1130720882309F444C08C81882319F08C810E94A9
S1130730FB028C85882F90E0880F991F8E589F4F5D
S11307409E878D878D859E85FC0125913491CF01EF
S1130750388B2F879E878D878F8598899A8B898B75
S11307608FE590E0FC0180818B8BF8948D89882340
S113077071F489899A89FC018081982F88858095F4
S11307808923282F89899A89FC0120830BC08989B0
S11307909A89FC0190818885292F282B89899A8937
S11307A0FC0120838FE590E02B89FC012083659672
S11307B00FB6F894DEBF0FBECDBFDF91CF91089581
S11307C0CF93DF93CDB7DEB761970FB6F894DEBF52
S11307D00FBECDBF898B8989882F90E082559F4FAA
S11307E09A83898389819A81FC0184918B838B818B
S11307F08C838989882F90E086569F4F9E838D83B2
S11308008D819E81FC0184918F838F818887898962
S1130810882F90E08A579F4F9A87898789859A8580
S1130820FC0184918B878B858C878C85882319F4B4
S113083080E090E026C08C81882319F08C810E948E
S1130840FB028C85882F90E0880F991F84589F4F56
S11308509E878D878D859E85FC0125913491CF01DE
S1130860388B2F879E878D878F859889FC0190818F
S113087088858923882319F081E090E002C080E014
S113088090E061960FB6F894DEBF0FBECDBFDF9146
S10B0890CF910895F894FFCF05
S9030000FC
