S01400004E656F506978656C546573742E737265634C
S11300000C945E000C9486000C9486000C9486007C
S11300100C9486000C9486000C9486000C94860044
S11300200C9486000C9486000C9486000C94860034
S11300300C9486000C9486000C9486000C94860024
S11300400C94B3020C9486000C9486000C948600E5
S11300500C9486000C9486000C9486000C94860004
S11300600C9486000C9486000000000024002700F5
S11300702A0000000000250028002B0004040404CA
S1130080040404040202020202020303030303033E
S1130090010204081020408001020408102001021B
S11300A004081020000000080002010000030407F7
S11300B00000000000000000A502AE0211241FBED3
S11300C0CFEFD8E0DEBFCDBF11E0A0E0B1E0EEE4B9
S11300D0F7E102C005900D92A630B107D9F721E0EF
S11300E0A6E0B1E001C01D92A632B207E1F710E02C
S11300F0CDE5D0E004C02197FE010E94600ACC3512
S1130100D107C9F70E945C020C949A0B0C9400006E
S11301108F929F92AF92BF92CF92DF92EF92FF9213
S1130120CF93DF934B015C01C0E0D0E0C42ED12C0F
S1130130E12CF12C10C0A5019401BE0186E091E0F0
S11301400E94CC0686E091E00E948F05C701B601AB
S11301500E948403219686E091E00E94AD07C817AF
S1130160D90748F3DF91CF91FF90EF90DF90CF90C4
S1130170BF90AF909F908F9008952F923F924F928F
S11301805F926F927F928F929F92AF92BF92CF9223
S1130190DF92EF92FF920F931F93CF93DF934B0164
S11301A05C010F2EFAE0EF2EF12CF02D312C212CD6
S11301B0C32CD22C442E512C612C712C3AC0BE017C
S11301C0600F711FA501940186E091E00E94CC06A6
S11301D0239686E091E00E94AD07C817D90778F30B
S11301E086E091E00E948F05C301B2010E9484035E
S11301F0CC2DDD2D0BC0B8016C0F7D1F20E030E04D
S1130200A90186E091E00E94CC06239686E091E065
S11302100E94AD07C817D90770F30F5F1F4F033053
S1130220110519F0CC2DDD2DD4CF81E0E81AF108A9
S113023019F0032D122DF6CFDF91CF911F910F915D
S1130240FF90EF90DF90CF90BF90AF909F908F90F2
S11302507F906F905F904F903F902F90089580957E
S1130260853548F4682F660F860F482F60E0809527
S11302700E947E0708958A3A50F48555682F660FC8
S1130280680F462F409580E00E947E0708958A5AA1
S1130290682F660F860F682F609540E00E947E07E6
S11302A00895AF92BF92CF92DF92EF92FF920F9395
S11302B01F93CF93DF9300E010E0A12CB12CC82E44
S11302C0D12CE12CF12C21C08C2F800F0E942F0106
S11302D09B01AC01BE0186E091E00E94CC06219610
S11302E086E091E00E94AD07C817D90768F386E05D
S11302F091E00E948F05C701B6010E9484030F5F3D
S11303001F4F011581E0180719F0CA2DDB2DE8CF26
S1130310DF91CF911F910F91FF90EF90DF90CF90DD
S1130320BF90AF9008958F929F92AF92BF92CF9259
S1130330DF92EF92FF920F931F93CF93DF93E12C01
S1130340F12CC12CD12C882E912CA12CB12C2BC09A
S113035086E091E00E94AD07BC01C8010E94F70944
S1130360862F8E0D0E942F019B01AC01BE0186E0F9
S113037091E00E94CC062196139586E091E00E94BC
S1130380AD07C817D90720F386E091E00E948F05D6
S1130390C501B4010E9484038FEFE81AF80AE1143E
S11303A085E0F80629F00C2D1D2DCC2DDD2DE5CF93
S11303B0DF91CF911F910F91FF90EF90DF90CF903D
S11303C0BF90AF909F908F9008954F925F926F92DD
S11303D07F928F929F92AF92BF92CF92DF92EF92D1
S11303E0FF920F931F93CF93DF93E12CF12C512CA9
S11303F0412CCC24CA94D12C652C742C882E912C9D
S1130400A12CB12C45C0CE018E0D9F1DB6010E94BA
S11304100B0A0E942F019B01AC01BE01600F711FEA
S113042086E091E00E94CC06239686E091E00E944B
S1130430AD07C817D90738F386E091E00E948F050D
S1130440C501B4010E948403C62DD72D0BC0B80189
S11304506C0F7D1F20E030E0A90186E091E00E944E
S1130460CC06239686E091E00E94AD07C817D90711
S113047070F30F5F1F4F0330110519F0C62DD72DF0
S1130480D4CF8FEFE81AF80AE11481E0F80619F0E6
S1130490052D142DF3CFDF91CF911F910F91FF9074
S11304A0EF90DF90CF90BF90AF909F908F907F9010
S11304B06F905F904F9008950E94EB0386E091E067
S11304C00E94750569E186E091E00E94BE0786E01E
S11304D091E00E948F0540E060E08FEF0E947E076C
S11304E042E30E94880040E06FEF80E00E947E07B4
S11304F042E30E9488004FEF60E080E00E947E07A4
S113050042E30E9488004FE76FE78FE70E947E076F
S113051042E30E94BD0040E060E08FE70E947E0756
S113052042E30E94BD004FE760E080E00E947E0746
S113053042E30E94BD0084E10E94510184E10E94D3
S1130540930182E30E94E501C6CF23E046E06CE319
S113055070E086E091E00E948004089586E091E0D6
S11305600E94540508951F920F9200905F000F920D
S113057011248F939F93AF93BF93CF93DF93CDB702
S1130580DEB72597DEBFCDBF80911D0190911E017E
S1130590A0911F01B091200189839A83AB83BC830E
S11305A0809121018D8389819A81AB81BC810196DF
S11305B0A11DB11D89839A83AB83BC838D818D5F1B
S11305C08D838D818D3770F08D818D578D838981D9
S11305D09A81AB81BC810196A11DB11D89839A8347
S11305E0AB83BC838D818093210189819A81AB8106
S11305F0BC8180931D0190931E01A0931F01B093B1
S113060020018091190190911A01A0911B01B091D0
S11306101C010196A11DB11D8093190190931A012B
S1130620A0931B01B0931C010F900F900F900F909B
S11306300F90DF91CF91BF91AF919F918F910F90C8
S113064000925F000F901F901895CF93DF9300D016
S113065000D000D0CDB7DEB78FE590E0FC018081FB
S11306608D83F8948091190190911A01A0911B0136
S1130670B0911C0189839A83AB83BC8386E490E0A8
S1130680FC0180818E8385E390E0FC018081882FCA
S113069090E081709927892B71F08E818F3F59F0FA
S11306A089819A81AB81BC810196A11DB11D898389
S11306B09A83AB83BC838FE590E02D81FC0120837A
S11306C089819A81AB81BC812227382F492F5A2FE7
S11306D08E81882F90E0A0E0B0E0820F931FA41FCA
S11306E0B51F880F991FAA1FBB1F880F991FAA1F28
S11306F0BB1FBC01CD0126960FB6F894DEBF0FBE1A
S1130700CDBFDF91CF910895EF92FF920F931F9386
S1130710CF93DF93CDB7DEB728970FB6F894DEBF3B
S11307200FBECDBF6D837E838F8398870E94250380
S1130730DC01CB0189839A83AB83BC8337C00E94DD
S1130740790417C08D819E81AF81B8850197A10975
S1130750B1098D839E83AF83B88789819A81AB81E8
S1130760BC8188519C4FAF4FBF4F89839A83AB8321
S1130770BC838D819E81AF81B885892B8A2B8B2B7D
S1130780A9F00E9425039B01AC0189819A81AB8168
S1130790BC8179018A01E81AF90A0A0B1B0BD801FA
S11307A0C701883E9340A105B10560F68D819E8105
S11307B0AF81B885892B8A2B8B2B09F628960FB627
S11307C0F894DEBF0FBECDBFDF91CF911F910F9183
S11307D0FF90EF900895CF93DF93CDB7DEB7789471
S11307E084E490E024E430E0F90120812260FC01FB
S11307F0208384E490E024E430E0F9012081216046
S1130800FC01208385E490E025E430E0F9012081B7
S11308102260FC01208385E490E025E430E0F901C6
S113082020812160FC0120838EE690E02EE630E0FA
S1130830F90120812160FC01208381E890E0FC0122
S1130840108281E890E021E830E0F9012081226003
S1130850FC01208381E890E021E830E0F901208167
S11308602160FC01208380E890E020E830E0F90179
S113087020812160FC01208381EB90E021EB30E0BA
S1130880F90120812460FC01208380EB90E020EBBF
S113089030E0F90120812160FC0120838AE790E0A7
S11308A02AE730E0F90120812460FC0120838AE7F3
S11308B090E02AE730E0F90120812260FC012083E6
S11308C08AE790E02AE730E0F90120812160FC0109
S11308D020838AE790E02AE730E0F901208120684C
S11308E0FC01208381EC90E0FC011082DF91CF9128
S11308F00895CF93DF93CDB7DEB7DF91CF910895FD
S1130900CF93DF93CDB7DEB760970FB6F894DEBF11
S11309100FBECDBF9C878B877E876D874F87288BC3
S11309208B859C852D853E85FC01318320832D8517
S11309303E85C901880F991F280F391F8B859C8517
S1130940FC01338322838B859C852F85FC012483C2
S11309508B859C85FC01178216828B859C85288952
S1130960FC0123878F85882F90E084589F4F9A83BA
S1130970898389819A81FC0184918B838B81882F5F
S113098090E0880F991F8E589F4F9D838C838C8194
S11309909D81FC0125913491CF013F832E839D835A
S11309A08C838E819F819C018B859C85FC01318B7E
S11309B0208B8F85882F90E080579F4F9987888759
S11309C088859985FC0184918A878B859C852A85F5
S11309D0FC01228B8B859C85FC01828193810E9482
S11309E0660A9C018B859C85FC01378326838B8555
S11309F09C85FC018681978121E0892B09F420E004
S1130A00222379F08B859C85FC01228133818B859F
S1130A109C85FC0186819781A90160E070E00E94B9
S1130A20930B8889882F90E081709927892B79F01E
S1130A308B859C8521E0FC0120878B859C85FC01AE
S1130A4011868B859C8522E0FC01228724C088893D
S1130A50882F90E084709927892B79F08B859C8569
S1130A6021E0FC0120878B859C8522E0FC01218705
S1130A708B859C85FC0112860EC08B859C85FC01B0
S1130A8010868B859C8521E0FC0121878B859C85C4
S1130A9022E0FC01228760960FB6F894DEBF0FBEF9
S1130AA0CDBFDF91CF910895CF93DF9300D0CDB721
S1130AB0DEB79A83898389819A81FC018681978133
S1130AC0892B39F089819A81FC01868197810E9462
S1130AD0FB0A89819A81FC01848160E00E944908B3
S1130AE00F900F90DF91CF910895CF93DF9300D0B3
S1130AF0CDB7DEB79A83898389819A81FC01848189
S1130B0061E00E94490889819A81FC01848160E046
S1130B100E9470090F900F90DF91CF910895EF928A
S1130B20FF920F931F93CF93DF93CDB7DEB76097F8
S1130B300FB6F894DEBF0FBECDBF9D878C878C8522
S1130B409D85DC0116968D919C911797892B09F44C
S1130B5016C100000E9425039B01AC018C859D8574
S1130B60FC0184859585A685B78579018A01E81AF3
S1130B70F90A0A0B1B0BD801C70121E0C297A10592
S1130B80B10508F020E0222329F7F8948C859D858F
S1130B90DC0112968D919C9113979C838B838C8599
S1130BA09D85FC01868197819A83898389819A81B5
S1130BB09C012F5F3F4F3A832983DC018C918D8305
S1130BC08C859D85FC018385882F90E08270992710
S1130BD0892B09F45FC08C859D85DC0150968D912D
S1130BE09C915197FC0120818C859D85DC01529656
S1130BF08C91822B8E838C859D85FC0180899189C3
S1130C00DC018C91282F8C859D85FC01828980953F
S1130C1082238F838F81888788E08987FE81FE877E
S1130C20EF80EF868C859D85DC0150962D913C915B
S1130C305197ED81798568858B819C8149815A81A1
S1130C40E88BF901E888DA01FE840F85F082E7FC7D
S1130C506F2D7A956083602F39F0EE1C00C0000080
S1130C600083000000C0F2CF78E0ED900083000024
S1130C70019761F7E88A9F014C855D85DA015196F9
S1130C803C932E935097B889BD83798768879C835A
S1130C908B8369C08C859D85FC0180899189DC01E9
S1130CA02C918C859D85FC018289822B8E838C8579
S1130CB09D85DC0150968D919C915197FC0180811A
S1130CC0282F8C859D85DC0152968C9180958223FA
S1130CD08F838F818A8788E08B87BE81BE87EF816F
S1130CE0EF878C859D85DC0150962D913C91519721
S1130CF0ED817B856A858B819C8149815A81E88B52
S1130D00F901E888DA01FE840F85F082E7FC6F2D93
S1130D1000C000C0608300C000C000C000C000C0AC
S1130D2000830000602F7A9541F0EE1C000000C0A3
S1130D3000C000C000C000C0E8CF78E0ED9000C063
S1130D40008300C0019709F7E88A9F014C855D85FF
S1130D50DA0151963C932E935097B889BD837B87D3
S1130D606A879C838B8378940E942503DC01CB01E2
S1130D702C853D85F90184879587A687B78760967A
S1130D800FB6F894DEBF0FBECDBFDF91CF911F9198
S1130D900F91FF90EF900895CF93DF93CDB7DEB717
S1130DA02D970FB6F894DEBF0FBECDBF9F838E8301
S1130DB0798768872A873B874C875D878E819F81E7
S1130DC0FC0120813181888599858217930708F079
S1130DD08CC08A859B85AC85BD85CD01AA27BB27A0
S1130DE089838A859B85AC85BD85892F9A2FAB2FF6
S1130DF0BB278A838A858B838E819F81FC018581B1
S1130E008823E1F18981482F50E08E819F81FC0184
S1130E108581282F30E0429FC001439F900D529F4F
S1130E20900D1124892F990F990B89838A81482F5A
S1130E3050E08E819F81FC018581282F30E0429F04
S1130E40C001439F900D529F900D1124892F990F3B
S1130E50990B8A838B81482F50E08E819F81FC01FE
S1130E608581282F30E0429FC001439F900D529FFF
S1130E70900D1124892F990F990B8B838E819F815B
S1130E80FC014681578128853985C901880F991F3E
S1130E90820F931F840F951F9D838C838E819F8166
S1130EA0FC018085882F90E02C813D81820F931F67
S1130EB02981FC0120838E819F81FC018185882FFB
S1130EC090E02C813D81820F931F2A81FC012083B5
S1130ED08E819F81FC018285882F90E02C813D8149
S1130EE0820F931F2B81FC0120832D960FB6F8945B
S1130EF0DEBF0FBECDBFDF91CF910895CF93DF93B7
S1130F0000D01F92CDB7DEB789836A834B83898172
S1130F10882F90E0A0E0B0E0AC01332722278A813B
S1130F20882F90E0A0E0B0E0BA2FA92F982F88274F
S1130F30282B392B4A2B5B2B8B81882F90E0A0E048
S1130F40B0E0822B932BA42BB52BBC01CD010F90C9
S1130F500F900F90DF91CF910895CF93DF9300D03E
S1130F60CDB7DEB79A83898389819A81FC01808118
S1130F7091810F900F90DF91CF910895CF93DF93DC
S1130F80CDB7DEB762970FB6F894DEBF0FBECDBF04
S1130F909B878A876C878C858F5F8F838A859B85E7
S1130FA0FC0195818F81981709F46AC08A859B8515
S1130FB0FC01868197819A8389838A859B85FC01BC
S1130FC08581815088878885882319F41C821B8237
S1130FD024C08C858F3F91F48885282F30E040E031
S1130FE050E08FEF9FEFA0E0B0E0BC01CD010E9484
S1130FF01F0ADA01C9019C838B830FC08F81882F5C
S113100090E0982F882701972885222F30E0B90196
S11310100E94F709CB019C838B831E821D8221C011
S113102089819A81FC018081898789819A819C01C7
S11310302F5F3F4F3A8329832985622F70E04B81CC
S11310405C81649F9001659F300D749F300D112465
S1131050232F3327FC0120838D819E8101969E835B
S11310608D838A859B85FC01228133818D819E81BC
S113107082179307A8F28A859B852F81FC0125831B
S113108062960FB6F894DEBF0FBECDBFDF91CF914D
S11310900895CF93DF93CDB7DEB769970FB6F89471
S11310A0DEBF0FBECDBF888F698F888D882F90E0FB
S11310B080579F4F9A83898389819A81FC01849107
S11310C08B838B818C83888D882F90E084589F4FED
S11310D09E838D838D819E81FC0184918F838F817A
S11310E088878885882309F494C08885882F90E0B0
S11310F0880F991F88599F4F9A87898789859A8570
S1131100FC0125913491CF013C872B879A878987ED
S11311108B859C859E878D878885882F90E0880F96
S1131120991F8E589F4F988B8F878F859889FC01C4
S113113025913491CF013A8B298B988B8F8789899C
S11311409A899C8B8B8B898D882331F58FE590E070
S1131150FC0180818D8BF8948D859E85FC018081B6
S1131160982F8C8180958923282F8D859E85FC015D
S113117020838B899C89FC018081982F8C818095A8
S11311808923282F8B899C89FC0120838FE590E09B
S11311902D89FC0120833DC0898D823021F58FE5A6
S11311A090E0FC0180818E8BF8948D859E85FC01F6
S11311B08081982F8C8180958923282F8D859E8509
S11311C0FC0120838B899C89FC0190818C81292FCF
S11311D0282B8B899C89FC0120838FE590E02E8944
S11311E0FC01208316C08FE590E0FC0180818F8B89
S11311F0F8948D859E85FC0190818C81292F282B64
S11312008D859E85FC0120838FE590E02F89FC016C
S1131210208369960FB6F894DEBF0FBECDBFDF9171
S1131220CF910895CF93DF931F92CDB7DEB7898313
S11312308981882F90E08330910591F08430910565
S113124034F48130910501F1029741F145C08730B2
S1131250910571F188309105A9F1049759F03CC0CA
S113126080E890E020E830E0F90120812F77FC014C
S1131270208332C080E890E020E830E0F90120814A
S11312802F7DFC01208328C084E490E024E430E036
S1131290F90120812F77FC0120831EC084E490E0B3
S11312A024E430E0F90120812F7DFC01208314C067
S11312B080EB90E020EB30E0F90120812F77FC01F6
S11312C020830AC080EB90E020EB30E0F90120811C
S11312D02F7DFC01208300000F90DF91CF910895B2
S11312E0CF93DF93CDB7DEB765970FB6F894DEBF23
S11312F00FBECDBF8C8B6D8B8C89882F90E08C5565
S11313009F4F9A83898389819A81FC0184918B837D
S11313108B818C838C89882F90E080579F4F9E838C
S11313208D838D819E81FC0184918F838F81888739
S11313308C89882F90E084589F4F9A878987898564
S11313409A85FC0184918B878B858C878C85882377
S113135009F444C08C81882319F08C810E941209FD
S11313608C85882F90E0880F991F8E589F4F9E87F9
S11313708D878D859E85FC0125913491CF01388B15
S11313802F879E878D878F8598899A8B898B8FE588
S113139090E0FC0180818B8BF8948D89882371F413
S11313A089899A89FC018081982F88858095892371
S11313B0282F89899A89FC0120830BC089899A89FD
S11313C0FC0190818885292F282B89899A89FC0121
S11313D020838FE590E02B89FC01208365960FB66E
S11313E0F894DEBF0FBECDBFDF91CF910895AA1B45
S11313F0BB1B51E107C0AA1FBB1FA617B70710F0FC
S1131400A61BB70B881F991F5A95A9F7809590952D
S1131410BC01CD01089597FB072E16F4009407D064
S113142077FD09D00E94F70907FC05D03EF490959A
S113143081959F4F0895709561957F4F0895052E6E
S113144097FB1EF400940E94360A57FD07D00E94B1
S11314503E0A07FC03D04EF40C94360A509540958E
S1131460309521953F4F4F4F5F4F0895909580954C
S1131470709561957F4F8F4F9F4F0895A1E21A2E6B
S1131480AA1BBB1BFD010DC0AA1FBB1FEE1FFF1F24
S1131490A217B307E407F50720F0A21BB30BE40B74
S11314A0F50B661F771F881F991F1A9469F76095BB
S11314B07095809590959B01AC01BD01CF01089575
S11314C0EE0FFF1F0590F491E02D0994CF93DF9365
S11314D08230910510F482E090E0E0912401F091D3
S11314E0250120E030E0C0E0D0E0309711F14081E8
S11314F0518148175907C0F04817590761F4828190
S11315009381209719F09B838A832BC090932501A4
S11315108093240126C02115310519F04217530781
S113152018F49A01BE01DF01EF010280F381E02D7E
S1131530DCCF2115310509F1281B390B2430310585
S113154090F412968D919C9113976115710521F079
S1131550FB019383828304C090932501809324012B
S1131560FD01329644C0FD01E20FF31F8193919374
S1131570225031092D933C933AC02091220130919D
S11315802301232B41F42091020130910301309374
S113159023012093220120910001309101012115A2
S11315A0310541F42DB73EB7409104015091050136
S11315B0241B350BE0912201F0912301E217F3077C
S11315C0A0F42E1B3F0B2817390778F0AC014E5FAF
S11315D05F4F2417350748F04E0F5F1F50932301C8
S11315E0409322018193919302C0E0E0F0E0CF01A7
S11315F0DF91CF9108950F931F93CF93DF930097BB
S113160009F48CC0FC0132971382128200912401E8
S1131610109125010115110581F420813181820F7A
S1131620931F20912201309123012817390779F55E
S1131630F0932301E093220171C0D80140E050E00F
S1131640AE17BF0750F412962D913C911397AD013C
S11316502115310509F1D901F3CF9D01DA01338355
S1131660228360817181860F971F8217930769F423
S1131670EC0128813981260F371F2E5F3F4F3183BC
S113168020838A819B8193838283452B29F4F09361
S11316902501E093240142C01396FC93EE93129724
S11316A0ED01499159919E01240F351FE217F3076B
S11316B071F480819181840F951F029611969C93F9
S11316C08E938281938113969C938E931297E0E07C
S11316D0F0E0D80112968D919C911397009719F020
S11316E0F8018C01F6CF8D919C9198012E5F3F4FAC
S11316F0820F931F2091220130912301281739076B
S113170069F4309729F4109225011092240102C043
S1131710138212821093230100932201DF91CF914F
S11317201F910F910895DC0101C06D934150504009
S1131730E0F7089510E0CDE5D0E004C0FE010E947A
S1111740600A2196CE35D107C9F7F894FFCF81
S109174E0000260120004A
S9030000FC
