S010000047656F63616368652E7372656305
S11300000C9464000C948C000C948C000C9450059B
S11300100C9450050C9450050C948C000C948C009A
S11300200C948C000C948C000C948C000C948C001C
S11300300C948C000C948C000C948C000C948C000C
S11300400C9466030C948C000C9486020C94B802F5
S11300500C948C000C948C000C948C000C948C00EC
S11300600C948C000C948C00000000080002010029
S1130070000304070000000000000000010204085F
S113008010204080010204081020010204081020FE
S1130090040404040404040402020202020203032A
S11300A003030303000000002300260029000000CE
S11300B00000250028002B00000000002400270079
S11300C02A008E00DE02950011241FBECFEFD8E077
S11300D0DEBFCDBF11E0A0E0B1E0E2E0F7E102C095
S11300E005900D92A439B107D9F723E0A4E9B1E052
S11300F001C01D92A336B207E1F710E0C3E6D0E0D9
S113010004C02197FE010E94E907C136D107C9F74F
S11301100E94EF000C94740B0C94000020E047E064
S113012068E084E991E00C94230684E991E00C945E
S1130130CA05CF93DF9380E8E3EBF1E0DF011D9282
S11301408A95E9F7C0E084E991E00E94E104019610
S1130150D1F384E991E00E946B04EC2FF0E0ED54BC
S1130160FE4F8083CC2329F0843219F48093B301A9
S1130170C0E08091B301843231F781E08C0FEC2F21
S1130180F0E0ED54FE4F90819A3011F0C82FDBCF90
S113019090E0FC01EF54FE4F1082EC012597FE0124
S11301A0ED54FE4F20812A3269F640E150E060E0D0
S11301B070E081559E4F0E94E60921E0822F90E075
S11301C08C179D073CF4FC01ED54FE4F8081682799
S11301D02F5FF4CF6111B6CFDF91CF910895CF9304
S11301E0DF93CDB7DEB7C455D1090FB6F894DEBF9F
S11301F00FBECDBF0E94B00326E040E052EC61E0A8
S113020070E083E392E00E941D0240E855E260E062
S113021070E084E991E00E944E0666E071E084E9B2
S113022091E00E943A0367E171E084E991E00E9461
S11302303A0360E371E084E991E00E943A03CE015D
S113024001967C016E0195E5C90ED11C0E949900AE
S11302508091B601823581F58701570164E771E029
S1130260C5010E94490486E0A80EB11CAC14BD046B
S1130270A9F7A12CB12CB501FB01ED54FE4F40812F
S1130280CB0101964C014C3241F45C010A5F1F4FD3
S11302900C151D0581F7860107C06A197B09C80181
S11302A00E945E04B401E8CF06501109C8010E94FF
S11302B0EB030E151F05C1F763EB71E083E392E0D6
S11302C00E943A03C3CFFC01918D228D892F90E0C7
S11302D0805C9F4F821B91098F7399270895FC01BD
S11302E0918D828D981731F0828DE80FF11D858DE7
S11302F090E008958FEF9FEF0895FC01918D828D1A
S1130300981761F0828DDF01A80FB11D5D968C9165
S1130310928D9F5F9F73928F90E008958FEF9FEF70
S11303200895FC01848DDF01A80FB11DA35ABF4FAE
S11303302C91848D90E001968F779927848FA689DC
S1130340B7892C93A089B1898C9180648C93938D07
S1130350848D981308950288F389E02D80818F7D20
S113036080830895CF93DF93EC01888D8823B9F0BF
S1130370EA89FB89A889B989908195FF0DC00FB6D8
S113038007FCFACF908195FFF7CF8C9185FFF4CFCE
S1130390CE010E949101ECCF8C9186FFF0CFDF91CA
S11303A0CF910895EF92FF920F931F93CF93DF9312
S11303B0EC0181E0888F9B8D8C8D981781F1062F3D
S11303C0EB8CF12C8FEFE81AF80AE894E7F8FF2495
S11303D01E2D03C00FB607FE19C09C8D1917D1F34B
S11303E08B8DFE01E80FF11DE35AFF4F0083EB8E66
S11303F0EA89FB8980818062808381E090E0DF91DB
S1130400CF911F910F91FF90EF900895E889F9899A
S1130410808185FFE2CFCE010E949101DECFE88981
S1130420F989808185FFCBCFEE89FF896083E889D4
S1130430F989808180648083E0CFBF92CF92DF927C
S1130440EF92FF920F931F93CF93DF93EC016A0116
S11304507B01B22EE889F98982E080834115514EEF
S113046061057105B1F060E079E08DE390E0A701EA
S113047096010E94940789019A01015011092109EA
S113048031093695279517950795011580E11807C9
S1130490A8F0E889F989108260E874E88EE190E0B8
S11304A0A70196010E949407DA01C9010197A109E5
S11304B0B109B695A795979587958C01EC85FD852F
S11304C01083EE85FF850083188EEC89FD89B08248
S11304D0EA89FB89808180618083EA89FB89808144
S11304E088608083EA89FB89808180688083EA89C7
S11304F0FB8980818F7D8083DF91CF911F910F9144
S1130500FF90EF90DF90CF90BF9008951F920F92CD
S11305100FB60F9211242F938F939F93EF93FF9312
S1130520E0914302F09144028081E0914902F0910C
S11305304A0282FD1BC0208180914C028F5F8F7321
S113054090914D02891741F0E0914C02F0E0ED5C8E
S1130550FD4F258F80934C02FF91EF919F918F91D6
S11305602F910F900FBE0F901F9018958081F4CF9C
S11305701F920F920FB60F9211242F933F934F9314
S11305805F936F937F938F939F93AF93BF93EF93F7
S1130590FF9383E392E00E949101FF91EF91BF9159
S11305A0AF919F918F917F916F915F914F913F9107
S11305B02F910F900FBE0F901F901895E3E3F2E078
S11305C01382128288EE93E0A0E0B0E084839583E6
S11305D0A683B78386E691E09183808385EC90E0DF
S11305E09587848784EC90E09787868780EC90E0F9
S11305F0918B808B81EC90E0938B828B82EC90E0EA
S1130600958B848B86EC90E0978B868B118E128E63
S1130610138E148E0895CF92DF92EF92FF920F9370
S11306201F93CF93DF934115510509F16A018C01A2
S11306307B01C0E0D0E004C02196CC16DD0669F051
S1130640D7016D917D01D801ED91FC910190F0816C
S1130650E02DC8010995892B79F7CE01DF91CF915F
S11306601F910F91FF90EF90DF90CF900895C0E01D
S1130670D0E0F3CF0F931F93CF93DF93EC01611579
S1130680710509F1FB0101900020E9F73197AF01F1
S1130690461B570BE881F9810280F381E02D09950F
S11306A08C01E881F9810280F381E02D42E050E081
S11306B062E771E0CE010995800F911FDF91CF9120
S11306C01F910F91089500E010E0EBCF1F920F925D
S11306D00FB60F9211242F933F938F939F93AF9351
S11306E0BF938091110390911203A0911303B091D1
S11306F014033091100323E0230F2D3768F126E80B
S1130700230F0296A11DB11D2093100380931103A2
S113071090931203A0931303B093140380911503D1
S113072090911603A0911703B09118030196A11D8F
S1130730B11D8093150390931603A0931703B093F0
S11307401803BF91AF919F918F913F912F910F907B
S11307500FBE0F901F9018950196A11DB11DD4CF07
S1130760789484B5826084BD84B5816084BD85B588
S1130770826085BD85B5816085BDEEE6F0E080814F
S113078081608083E1E8F0E0108280818260808370
S1130790808181608083E0E8F0E0808181608083F3
S11307A0E1EBF0E0808184608083E0EBF0E0808125
S11307B081608083EAE7F0E08081846080838081C7
S11307C0826080838081816080838081806880836F
S11307D01092C1000895FC01808191810C948408D9
S11307E00F931F93CF93DF93FC0180819181009736
S11307F029F0228133812617370790F48B01EF010A
S11308006F5F7F4F0E941C09009781F09983888352
S11308101B830A832C813D81232B11F4FC0110825C
S113082081E0DF91CF911F910F91089580E0F9CF7E
S1130830EF92FF920F931F93CF93DF93EC017B0111
S11308408A01BA010E94F003811114C08881998140
S1130850009711F00E948408198218821D821C825C
S11308601B821A82CE01DF91CF911F910F91FF90CD
S1130870EF9008951D830C83B701888199810E94AC
S1130880090BCE01DF91CF911F910F91FF90EF9053
S11308900895FC011182108213821282158214823F
S11308A06115710551F0FB0101900020E9F73197C2
S11308B0AF01461B570B0C9418040895FC012481C6
S11308C035816217730730F480819181FC01E60F52
S11308D0F71F4083089520915B0330915C03281730
S11308E03907B9F49091190380911A03981789F084
S11308F0E0911903F0E0E55EFC4F8081209119033B
S113090030E02F5F3F4F2F7333272093190390E07C
S113091008958FEF9FEF08951F93CF93DF93DC012A
S11309205C962D913C915D972115310539F481E058
S113093090E013969C938E9312973DC05196ED913F
S1130940FC91529750969C915097892F80951FB790
S11309505E964C915E9741FB772770F941FD609557
S1130960F8944081772311F0492B01C04823408338
S1130970E9012197F1F748E0508160FF02C0592B4B
S113098001C058235083E9012197F1F7669541503E
S113099099F7772321F090818923808303C0808194
S11309A0982B90831FBF5C968D919C915D970197C6
S11309B0F1F721E030E0C901DF91CF911F91089553
S11309C0089520915B0330915C032817390771F473
S11309D09091190380911A03981741F0E09119033B
S11309E0F0E0E55EFC4F808190E008958FEF9FEF8B
S11309F0089520915B0330915C032817390771F443
S1130A0080911A032091190390E0805C9F4F821B10
S1130A10910960E470E00E948007089580E090E00E
S1130A200895E0915B03F0915C03E817F90769F41A
S1130A30A389B4899C918589809589238C9310928C
S1130A405C0310925B0381E0089580E00895CF93E6
S1130A50DF93EC018A8D9B8D892BF1F080915B03F0
S1130A6090915C038C179D07B9F0009711F00E94D8
S1130A7011058E8D8E7F8E8F10921A03109219039A
S1130A80D0935C03C0935B03EB89FC8990818D89CF
S1130A90892B808381E001C080E0DF91CF910895AC
S1130AA01F920F920FB60F9211242F933F934F93DF
S1130AB05F936F937F938F939F93AF93BF93EF93C2
S1130AC0FF93E0915B03F0915C03309709F451C00C
S1130AD0968DA685B785858591FF04C09C91892351
S1130AE029F447C09C91892309F043C0A389B489A0
S1130AF09C918589809589238C9386899789019710
S1130B00F1F7608D718DA685B785558538E020E0B5
S1130B10CB010197F1F7822F90E095958795282FC7
S1130B204C91452309F02068315091F7868D81FD61
S1130B30209580911A0390E001968F739927309144
S1130B401903381749F0A0911A03B0E0A55EBC4F11
S1130B502C9380931A0303C0868D8160868F828DC7
S1130B60938D0197F1F7A389B4899C918589892B89
S1130B708C93FF91EF91BF91AF919F918F917F9152
S1130B806F915F914F913F912F910F900FBE0F90F6
S1130B901F90189527E831E0FC01318320830C94E1
S1130BA011051F93CF93DF93EC01162F6E8D66957D
S1130BB0617081E06827812F0E944C0761E0812FDA
S1130BC00E940B07612F70E0FB01E458FF4FE49192
S1130BD0E88BFB01E057FF4FE491F0E0EE0FFF1FBD
S1130BE0E255FF4F859194919A8B898BDF91CF9138
S1130BF01F9108951F93CF93DF93EC01162F60E0AC
S1130C00812F0E940B078E8D81FD04C061E0812F2E
S1130C100E944C071C87612F70E0FB01E458FF4FD2
S1130C20E491ED87FB01E057FF4FE491F0E0EE0F14
S1130C30FF1FEC55FF4F859194919F878E87DF911D
S1130C40CF911F9108951F93CF93DF93EC01162F3B
S1130C501B821A8288EE93E0A0E0B0E08C839D832F
S1130C60AE83BF8387E891E0998388831F8A1E8AB5
S1130C70198E188E1B8E1A8E1D8E1C8E8E8D8E7F55
S1130C8020FB81F98E8F642FCE010E94D105612F44
S1130C90CE01DF91CF911F910C94FA05CF93DF938E
S1130CA0EC019A01AB011B8E1A8E198E188E1F8AC5
S1130CB01E8A60E079E08DE390E00E94B607F901B6
S1130CC02430310518F0C901039702C081E090E097
S1130CD09D8F8C8F6C85663108F069C0C90196952B
S1130CE087958431910510F0439702C081E090E02C
S1130CF09F8B8E8B369718F0C901059702C081E04F
S1130D0090E0998F888FC901880F991F280F391F88
S1130D1036952795369527952D30310518F02C50AA
S1130D20310902C021E030E03B8F2A8F90916800A6
S1130D30683050F021E06E3008F420E081E001C01A
S1130D40880F2A95EAF701C084E0892B8093680014
S1130D508C85883038F08E3040F0863148F020E0C1
S1130D6030E008C02DE630E005C02BE630E002C0DC
S1130D702CE630E03C8B2B8B883030F491E001C0C2
S1130D80990F8A95EAF70EC0282F30E08E3018F4B8
S1130D902850310902C02E50310991E001C0990F49
S1130DA02A95EAF79D8B8C8D9D8D0197F1F7CE01E5
S1130DB0DF91CF910C9427058330E9F038F0873028
S1130DC069F0883011F1843079F008958130C9F0E8
S1130DD0823081F484B58F7D84BD08958091B00004
S1130DE08F778093B0000895809180008F7D8093E9
S1130DF0800008950895809180008F77809380000B
S1130E00089584B58F7784BD08958091B0008F7D57
S1130E108093B0000895CF93DF9390E0FC01E458F1
S1130E20FF4F2491FC01E057FF4F84918823B9F0D0
S1130E3090E0880F991FFC01E854FF4FA591B491ED
S1130E40FC01E255FF4FC591D491662359F06230FD
S1130E50B9F08FB7F894EC91E22BEC938FBFDF914C
S1130E60CF9108959FB7F8948C91E22FE0958E234B
S1130E708C932881E223E8839FBFDF91CF9108956B
S1130E809FB7F8943C91822F809583238C93E881BB
S1130E90E22BE8839FBFE3CF1F93CF93DF93282FE9
S1130EA030E0F901E859FF4F8491F901E458FF4F0C
S1130EB0D491F901E057FF4FC491CC23A9F0162F28
S1130EC081111BC0EC2FF0E0EE0FFF1FE255FF4F26
S1130ED0A591B4918FB7F89411110AC09C91ED2F8C
S1130EE0E095E923EC938FBFDF91CF911F91089593
S1130EF0EC91ED2BEC938FBFF7CF0E94DC06E2CF91
S1130F0097FB072E16F4009407D077FD09D00E94B2
S1130F10D50707FC05D03EF4909581959F4F089521
S1130F20709561957F4F0895A1E21A2EAA1BBB1BF1
S1130F30FD010DC0AA1FBB1FEE1FFF1FA217B307A1
S1130F40E407F50720F0A21BB30BE40BF50B661FB7
S1130F50771F881F991F1A9469F76095709580957B
S1130F6090959B01AC01BD01CF010895052E97FB1F
S1130F701EF400940E94CD0757FD07D00E949407E9
S1130F8007FC03D04EF40C94CD0750954095309552
S1130F9021953F4F4F4F5F4F0895909580957095E1
S1130FA061957F4F8F4F9F4F0895AA1BBB1B51E143
S1130FB007C0AA1FBB1FA617B70710F0A61BB70BC5
S1130FC0881F991F5A95A9F780959095BC01CD016A
S1130FD00895EE0FFF1F0590F491E02D0994CF932F
S1130FE0DF938230910510F482E090E0E0915F039A
S1130FF0F091600320E030E0C0E0D0E0309711F1E0
S11310004081518148175907C0F04817590761F4C6
S113101082819381209719F09B838A832BC09093BC
S1131020600380935F0326C02115310519F0421730
S1131030530718F49A01BE01DF01EF010280F38126
S1131040E02DDCCF2115310509F1281B390B2430A3
S1131050310590F412968D919C9113976115710549
S113106021F0FB019383828304C0909360038093F7
S11310705F03FD01329644C0FD01E20FF31F81932B
S11310809193225031092D933C933AC020915D03F2
S113109030915E03232B41F420910201309103012E
S11310A030935E0320935D03209100013091010190
S11310B02115310541F42DB73EB7409104015091FB
S11310C00501241B350BE0915D03F0915E03E217EB
S11310D0F307A0F42E1B3F0B2817390778F0AC0157
S11310E04E5F5F4F2417350748F04E0F5F1F509334
S11310F05E0340935D038193919302C0E0E0F0E0CE
S1131100CF01DF91CF9108950F931F93CF93DF9376
S1131110009709F48CC0FC0132971382128200916B
S11311205F03109160030115110581F42081318161
S1131130820F931F20915D0330915E0328173907B6
S113114079F5F0935E03E0935D0371C0D80140E04C
S113115050E0AE17BF0750F412962D913C911397AF
S1131160AD012115310509F1D901F3CF9D01DA0152
S11311703383228360817181860F971F82179307BF
S113118069F4EC0128813981260F371F2E5F3F4F08
S1131190318320838A819B8193838283452B29F425
S11311A0F0936003E0935F0342C01396FC93EE93C5
S11311B01297ED01499159919E01240F351FE217B1
S11311C0F30771F480819181840F951F0296119623
S11311D09C938E938281938113969C938E93129702
S11311E0E0E0F0E0D80112968D919C91139700975E
S11311F019F0F8018C01F6CF8D919C9198012E5F26
S11312003F4F820F931F20915D0330915E03281797
S1131210390769F4309729F41092600310925F0340
S113122002C01382128210935E0300935D03DF9168
S1131230CF911F910F910895A0E0B0E0E2E2F9E0B0
S11312400C94320BEC01009721F4CB010E94EF07C0
S1131250B8C0FC01E60FF71F9C0122503109E217C8
S1131260F30708F4ACC0D9010D911C91119706172E
S11312701707B0F00530110508F49FC0C8010497A2
S11312808617970708F499C002501109061B170B1B
S1131290019311936D937C93CF010E9484088DC0B8
S11312A05B01A01AB10A4C01800E911EA0915F034C
S11312B0B091600340E050E0E12CF12C109709F468
S11312C04AC0A815B905D1F56D907C9011976301BA
S11312D082E0C80ED11CCA14DB0480F1A3014A19B0
S11312E05B096A0182E0C80ED11C1296BC90129769
S11312F01396AC91B5E0CB16D10440F0B282A3832F
S113130051834083D9016D937C930AC00E5F1F4FB4
S1131310C301800F911FF90191838083EB2DFA2F74
S1131320E114F10431F0D7011396FC93EE93129774
S113133044C0F0936003E0935F033FC08D919C91A0
S113134011974817590708F4AC017D0112960D90C6
S1131350BC91A02DB3CF80915D0390915E0388155D
S11313609905E1F446175707C8F48091000190915C
S11313700101009741F48DB79EB74091040150914B
S11313800501841B950BE817F907C8F4F0935E0375
S1131390E0935D03F901718360830FC0CB010E9468
S11313A0EF077C01009759F0A801BE010E94000BD1
S11313B0CE010E948408C70104C0CE0102C080E0AF
S11313C090E0CDB7DEB7EEE00C944E0BA0E0B0E0B9
S11313D0ECEEF9E00C942E0B5C016B017A016115C3
S11313E0710519F0FB0191838083E114F10429F064
S11313F0C7010297839708F0F1C0E5012196F50132
S11314001081812F90E00E94F70A892B11F05E0170
S1131410F4CF1D3229F42196F501118101E007C0B2
S11314201B3221F4E5012296F501118100E0E1145B
S1131430F10459F1F0E1EF16F10461F41033E1F431
S113144088818F7D883569F519812296026070E163
S1131450E72EF12C88E0E816F10439F12CF4F2E0DF
S1131460EF16F104C9F12AC08AE0E816F10479F014
S1131470E0E1EE16F10411F550E1E52EF12C812C9A
S1131480912CA12C68E0B62E2CC01033C9F23AE09E
S1131490E32EF12C4CEC842E982CA82C4CE0B42E8A
S11314A020C010E3E114F104A9F698E0E92EF12C30
S11314B0812C912CA12C20E1B22E13C060E070E0AD
S11314C080E090E897010F2C000C440B550B0E9410
S11314D0940749015A0105C0812C912CA12C80E468
S11314E0B82E60E020E030E0A90127010F2C000CA9
S11314F0660877081E01E0EDE10FEA3060F08FEB3B
S1131500810F8A3110F4E9EC05C08FE9810F8A312B
S113151028F5E9EAE10F8E2F90E08E159F05F4F48B
S113152067FD18C082169306A406B50690F0C301A1
S1131530B2010E94130B9B01AC012E0F311D411D02
S1131540511D213031054105F0E85F0710F461E0D9
S113155001C06FEF2196F1011081CCCF802F8170F3
S1131560C114D10471F0662329F02197F601D183C7
S1131570C08307C001FF19C02297F601D183C0833D
S113158014C067FF12C0811105C02FEF3FEF4FEF6A
S11315905FE704C020E030E040E050E882E290E001
S11315A0909362038093610316C0882341F05095A1
S11315B04095309521953F4F4F4F5F4F0CC057FFDB
S11315C00AC082E290E090936203809361032FEF5C
S11315D03FEF4FEF5FE7B901CA0104C060E070E07C
S11315E080E090E0CDB7DEB7E2E10C944A0B9111B4
S11315F00C94100B803219F089508550C8F7089567
S1131600FB01DC0102C001900D9241505040D8F71B
S11316100895FB01DC0101900D920020E1F708958B
S1131620992788270895DB018F939F930E94230BAA
S1131630BF91AF91A29F800D911DA39F900DB29F6A
S1131640900D112408950E94650BA59F900DB49FE1
S1131650900DA49F800D911D112408952F923F9207
S11316604F925F926F927F928F929F92AF92BF92AE
S1131670CF92DF92EF92FF920F931F93CF93DF935A
S1131680CDB7DEB7CA1BDB0B0FB6F894DEBF0FBEB7
S1131690CDBF09942A88398848885F846E847D8404
S11316A08C849B84AA84B984C884DF80EE80FD8006
S11316B00C811B81AA81B981CE0FD11D0FB6F8947C
S11316C0DEBF0FBECDBFED010895A29FB001B39F51
S11316D0C001A39F700D811D1124911DB29F700D37
S11316E0811D1124911D089510E0C3E6D0E004C0CB
S11316F0FE010E94E9072196C436D107C9F7F89480
S1051700FFCF15
S113170200006303200024504D544B3232302C31FC
S11317123030302A31460024504D544B3330302C73
S1131722313030302C302C302C302C302A314300E4
S113173224504D544B3331342C302C312C302C303A
S11317422C302C302C302C302C302C302C302C30B3
S11317522C302C302C302C302C302C302C302A32A3
S1131762390000000000D2010B0363017D016F0107
S1131772B2010D0A006E616E00696E66006F7666D4
S1131782002E00000000008C040B03F9046B04E13A
S107179204E0040067
S9030000FC
