:100000000C9462000C948A000C948A000C948A0070
:100010000C948A000C948A000C948A000C948A0038
:100020000C948A000C948A000C948A000C9485111C
:100030000C948A000C948A000C948A000C948A0018
:100040000C94110B0C948A000C949D060C94CB0616
:100050000C948A000C948A000C948A000C948A00F8
:100060000C948A000C948A000000000024002700F1
:100070002A0000000000250028002B0000000000DE
:1000800023002600290004040404040404040202DA
:100090000202020203030303030301020408102007
:1000A0004080010204081020010204081020000012
:1000B0000008000201000003040700000000000027
:1000C0000000340711241FBECFEFD8E0DEBFCDBF44
:1000D00011E0A0E0B1E0EAE0FEE202C005900D927E
:1000E000A437B107D9F722E0A4E7B1E001C01D921F
:1000F000A438B207E1F710E0C2E6D0E004C02197CF
:10010000FE010E949D14C136D107C9F70E944E011D
:100110000C9403170C940000CF92DF92EF92FF92A1
:100120000F931F93FC010081118122813381FB0118
:10013000C080D180E280F3800C151D052E053F059F
:1001400020F40083118322833383FC018081918119
:10015000A281B381FA0100811181228133810817C4
:1001600019072A073B0720F480839183A283B38376
:100170001F910F91FF90EF90DF90CF900895CF9255
:10018000DF92EF92FF920F931F93CF93DF93E09153
:100190007601F0917701EE0FFF1FEE0FFF1FE80FC2
:1001A000F91F4083518362837383EC018C01085DE6
:1001B0001F4F2991399149915991C701B6010E9468
:1001C000B3146B017C01C017D10799F71092770126
:1001D0001092760120E030E040E251E40E942415C4
:1001E00023E030E040EA5BE30E94831620E030E049
:1001F00040E05FE30E94B21420E030E048EC52E4BB
:100200000E948316DF91CF911F910F91FF90EF9085
:10021000DF90CF900895CF92DF92EF92FF920F93ED
:100220001F93680179012091740130917501220FAB
:10023000331F220F331F820F931FFC014083518312
:1002400062837383109275011092740120E030E094
:10025000A901C701B6010E94831620E030E040E00A
:1002600052E40E94B3141F910F91FF90EF90DF9022
:10027000CF9008951F93CF93DF93182FC8EED3E04C
:10028000812F0E94F70E019721F02197C9F781E095
:1002900001C080E0DF91CF911F910895CF93DF934C
:1002A000CDB7DEB7C754D1090FB6F894DEBF0FBE85
:1002B000CDBF0E94AF0B8FEF90E0A0E0B0E08DA724
:1002C0009EA7AFA7B8AB19A61AA61BA61CA662E0EC
:1002D00088E00E94490D61E086E00E94490D61E0DE
:1002E00085E00E94490D61E086E00E94700E60E0AA
:1002F00085E00E94700ECE01C5960E94191269E039
:1003000070E0CE01C5960E944B120E94830B1B0128
:100310002C0126E040E052EC61E070E088E791E0DB
:100320000E9446032496CCAEDDAEEEAEFFAE24971F
:10033000C8ACD9ACEAACFBAC79AE68AE32012101F5
:100340002596AFAE25972696BFAE269702C039AE4A
:1003500028AE88E090E00E943A01282E312C80E0FF
:100360000E943D0C4C010E94830B930182010C5EA4
:100370001F4F2F4F3F4F061717072807390708F061
:10038000A8C00E94830B2B013C0181E00E943D0C20
:10039000092E000CAA0BBB0B89AB9AABABABBCAB69
:1003A000AE01435D5F4FBE01675D7F4FCE01C196D9
:1003B0000E948C00EDA4FEA40FA518A929A53AA5BA
:1003C0004BA55CA5D801C701821B930BA40BB50BF1
:1003D0000A97A105B10558F460E070E085E00E943D
:1003E0008D0C60E070E086E00E948D0C38C069A939
:1003F0007AA98BA99CA91F921F921F92EFEFEF93EE
:10040000A12CB12C65010E94610F6CAF7DAF8EAF46
:100410009FAF6CAD7DADCE01C5960E94F9126CAD5B
:100420007DAD86E00E948D0C6CAD7DAD60957095C4
:1004300085E00E948D0C0F900F900F900F908CAD67
:1004400027968FAF27979DAD28969FAF2897EEAD43
:100450002596EFAF25978FAD26968FAF2697B401DF
:10046000990C880B990B0E94CE154B015C01AB01D6
:10047000BC01CE0101960E94BF006B017C018B0183
:100480009C01B501A401CE0101960E940B012496A6
:100490006CAF7DAF8EAF9FAF24974DA55EA56FA5C6
:1004A00078A989A59AA5ABA5BCA584179507A60729
:1004B000B70778F441505109610971094DA75EA74A
:1004C0006FA778AB0196A11DB11D89A79AA7ABA70D
:1004D000BCA72114310409F03ACF88AD99AD01973A
:1004E00009F035CF62E171E088E791E00E94C00732
:1004F0002AE030E027964FAD279728965FAD2897E2
:1005000025966FAD259726967FAD269788E791E0D3
:100510000E9492086EE171E088E791E00E94C007B6
:1005200049A55AA56BA57CA52AE030E088E791E0B3
:100530000E94920865E271E088E791E00E94C0079E
:100540004DA55EA56FA578A92AE030E088E791E087
:100550000E9492086CE271E088E791E00E94C00777
:100560002AE030E04CAD5DAD6EAD7FAD88E791E047
:100570000E94920863E371E088E791E00E94C0075F
:1005800022E030E0B701A60188E791E00E94CC08A4
:1005900061E471E088E791E00E94C00722E030E06A
:1005A00024964CAD5DAD6EAD7FAD249788E791E0AC
:1005B0000E94CC0869E471E088E791E00E94050997
:1005C000C6CECF93DF9300D01F92CDB7DEB79B830B
:1005D0008A838A819B81FC01848D882F90E02A8107
:1005E0003B81820F931F835A9F4FFC018081898337
:1005F0008A819B81FC01848D882F90E001968F7702
:100600009078992324F4019780689F6F0196282F92
:100610008A819B81FC01248F8A819B81FC018689D0
:1006200097892981FC0120838A819B81FC01808933
:1006300091892A813B81F90120893189F901208141
:100640002064FC0120838A819B81FC01238D8A81A7
:100650009B81FC01948D81E0291709F080E08823BB
:1006600079F08A819B81FC01828993892A813B816F
:10067000F90122893389F90120812F7DFC01208332
:100680000F900F900F90DF91CF910895CF93DF934C
:10069000CDB7DEB761970FB6F894DEBF0FBECDBF02
:1006A0009C838B834D835E836F837887298780E06B
:1006B00099E0ADE3B0E02D813E814F815885BC01CA
:1006C000CD010E945114DA01C9010197A109B109B4
:1006D000B695A795979587959A8389838B819C81F9
:1006E000FC018089918922E0FC0120838D819E811B
:1006F000AF81B8858115914EA105B10529F0898199
:100700009A8181159041F0F08B819C81FC01808958
:100710009189FC01108280E894E8AEE1B0E02D817F
:100720003E814F815885BC01CD010E945114DA01F0
:10073000C9010197A109B109B695A7959795879524
:100740009A8389838B819C81FC018485958529818D
:100750003A81232F3327FC0120838B819C81FC016C
:10076000868597852981FC0120838B819C81FC01F2
:10077000108E8B819C81FC01848995892985FC01DF
:1007800020838B819C81FC01828993892B813C8110
:10079000F90122893389F90120812061FC0120833C
:1007A0008B819C81FC01828993892B813C81F90199
:1007B00022893389F90120812860FC0120838B8103
:1007C0009C81FC01828993892B813C81F9012289DA
:1007D0003389F90120812068FC0120838B819C8171
:1007E000FC01828993892B813C81F901228933891B
:1007F000F90120812F7DFC01208361960FB6F894CA
:10080000DEBF0FBECDBFDF91CF910895CF93DF93B1
:1008100000D0CDB7DEB79A83898389819A81FC01A4
:10082000818D882F90E09C01205C3F4F89819A81C7
:10083000FC01828D882F90E0A901481B590BCA0149
:100840008F7399270F900F90DF91CF910895CF93D9
:10085000DF9300D0CDB7DEB79A83898389819A81EF
:10086000FC01218D89819A81FC01928D81E02917FB
:1008700009F080E0882319F08FEF9FEF0FC0898186
:100880009A81FC01828D882F90E029813A81820F24
:10089000931F4D96FC018081882F90E00F900F9060
:1008A000DF91CF910895CF93DF9300D01F92CDB702
:1008B000DEB79B838A838A819B81FC01218D8A819B
:1008C0009B81FC01928D81E0291709F080E088234B
:1008D00019F08FEF9FEF1CC08A819B81FC01828DF4
:1008E000882F90E02A813B81820F931F4D96FC0157
:1008F000808189838A819B81FC01828D8F5F282F73
:100900002F738A819B81FC01228F8981882F90E03F
:100910000F900F900F90DF91CF910895CF93DF93B9
:1009200000D0CDB7DEB79A83898389819A81FC0193
:10093000908D81E08927882309F04EC02DC08FE576
:1009400090E0FC01808188237CF089819A81FC0100
:1009500082899389FC018081882F90E08072992799
:10096000892B11F081E001C080E08823A9F0898102
:100970009A81FC0180899189FC018081882F90E017
:100980008072992721E0892B09F420E0222321F0AD
:1009900089819A810E94E10289819A81FC01828980
:1009A0009389FC018081882F90E080729927892BA0
:1009B00069F489819A81FC0180899189FC01808197
:1009C000882F90E080749927892B11F481E001C071
:1009D00080E0882309F0B3CF0F900F90DF91CF9183
:1009E0000895CF93DF9300D000D0CDB7DEB79B83BF
:1009F0008A836C838A819B8121E0FC01208F8A811C
:100A00009B81FC01238D8A819B81FC01848D2817A9
:100A100079F48A819B81FC0180899189FC01808124
:100A2000882F90E080729927892B11F081E001C016
:100A300080E08823D1F08A819B81FC018689978997
:100A40002C81FC0120838A819B81FC018089918912
:100A50002A813B81F90120893189F90120812064B3
:100A6000FC01208381E090E060C08A819B81FC01D1
:100A7000838D882F90E001968F779078992324F4C6
:100A8000019780689F6F019689831FC08FE590E072
:100A9000FC0180818095881F8827881F8823A9F002
:100AA0008A819B81FC0180899189FC018081882F4A
:100AB00090E08072992721E0892B09F420E022231D
:100AC00021F08A819B810E94E1028A819B81FC0145
:100AD000248D81E09981291709F080E08823B1F6FF
:100AE0008A819B81FC01838D882F90E02A813B8144
:100AF000820F931F835A9F4F2C81FC0120838A8190
:100B00009B812981FC01238F8A819B81FC01828941
:100B100093892A813B81F90122893389F901208156
:100B20002062FC01208381E090E00F900F900F90F5
:100B30000F90DF91CF910895CF93DF9300D0CDB781
:100B4000DEB79A83898389819A812FE631E0FC019F
:100B50003183208389819A81FC01138212820F9054
:100B60000F90DF91CF910895CF93DF9300D0CDB751
:100B7000DEB79A83898389819A810E949C05898145
:100B80009A812FE531E0FC013183208329813A816C
:100B900088EE93E0A0E0B0E0F90184839583A6831A
:100BA000B7830F900F90DF91CF910895CF92DF928E
:100BB000EF92FF920F931F93CF93DF93CDB7DEB7E2
:100BC0002E970FB6F894DEBF0FBECDBF9A838983F0
:100BD0007C836B835E834D8338872F831A870987D5
:100BE000FC86EB86DE86CD8689819A810E94B405DB
:100BF00089819A812FE431E0FC013183208389814E
:100C00009A812B813C81FC013587248789819A81D7
:100C10002D813E81FC013787268789819A812F812A
:100C20003885FC01318B208B89819A8129853A8511
:100C3000FC01338B228B89819A812B853C85FC01B9
:100C4000358B248B89819A812D853E85FC01378BDC
:100C5000268B89819A81FC01118E89819A81FC0100
:100C6000128E89819A81FC01138E89819A81FC01FF
:100C7000148E2E960FB6F894DEBF0FBECDBFDF9157
:100C8000CF911F910F91FF90EF90DF90CF9008953B
:100C9000CF93DF9300D000D0CDB7DEB79C838B839A
:100CA0008B819C81FC0180899189FC018081882F46
:100CB00090E08470992721E0892B09F020E022231D
:100CC00071F18B819C81FC0186899789FC0180816F
:100CD00089838B819C81FC01818D8F5F8F738A83D7
:100CE0008B819C81FC01228D81E09A81291709F476
:100CF00080E0882399F08B819C81FC01818D882F75
:100D000090E02B813C81820F931F4D962981FC013D
:100D100020838B819C812A81FC01218F07C08B81DC
:100D20009C81FC0186899789FC0180810F900F903E
:100D30000F900F90DF91CF9108951F920F92009026
:100D40005F000F9211242F933F934F935F936F9304
:100D50007F938F939F93AF93BF93EF93FF93CF9323
:100D6000DF93CDB7DEB788E791E00E944806DF91B8
:100D7000CF91FF91EF91BF91AF919F918F917F9113
:100D80006F915F914F913F912F910F9000925F0073
:100D90000F901F9018951F920F9200905F000F9276
:100DA00011242F933F934F935F936F937F938F9370
:100DB0009F93AF93BF93EF93FF93CF93DF93CDB701
:100DC000DEB788E791E00E94E102DF91CF91FF91C9
:100DD000EF91BF91AF919F918F917F916F915F91B3
:100DE0004F913F912F910F9000925F000F901F90B5
:100DF0001895CF92DF92EF92FF920F931F93CF93AC
:100E0000DF9300D000D0CDB7DEB79A8389837C838F
:100E10006B8389819A810197D1F48B819C810196A2
:100E2000B1F40F2EF6ECCF2ED12CF02D0F2EF2ECCC
:100E3000EF2EF12CF02D01EC10E020EC30E044EC32
:100E400050E065EC70E088E791E00E94D6050F90D5
:100E50000F900F900F90DF91CF911F910F91FF9006
:100E6000EF90DF90CF900895CF93DF93CDB7DEB7AB
:100E70006FEF7FEF81E090E00E94F906DF91CF9164
:100E800008950F931F93CF93DF9300D000D0CDB779
:100E9000DEB79A8389837C836B838B819C81892BCA
:100EA00019F480E090E015C089819A81FC0180816D
:100EB00091810296FC01008111818B819C810E94AD
:100EC000FA16AC012B813C8189819A81B901F80124
:100ED00009950F900F900F900F90DF91CF911F9178
:100EE0000F910895CF93DF93CDB7DEB728970FB654
:100EF000F894DEBF0FBECDBF9C838B837E836D8352
:100F000058874F831A82198223C08B819C81FC01F0
:100F100080819181FC01208131818D819E81AC0194
:100F20004F5F5F4F5E834D83FC0140818B819C81CD
:100F3000642FF901099521E0892B09F420E022238F
:100F400031F089819A8101969A83898301C00DC00D
:100F50008F8198859C012150310938872F8321E0AA
:100F6000892B09F420E0222381F689819A81289631
:100F70000FB6F894DEBF0FBECDBFDF91CF910895BD
:100F8000CF93DF9300D000D0CDB7DEB79A838983AB
:100F90007C836B832B813C8189819A81B9010E947A
:100FA00041070F900F900F900F90DF91CF91089510
:100FB000CF93DF9300D01F92CDB7DEB79A8389839A
:100FC0006B8389819A81FC0180819181FC01208160
:100FD000318189819A816B81F90109950F900F9078
:100FE0000F90DF91CF910895CF93DF9300D000D081
:100FF00000D0CDB7DEB79A8389837C836B835E8311
:101000004D838B819C81092E000CAA0BBB0B2D817B
:101010003E81E981FA81AC01BD01CF010E9419082E
:1010200026960FB6F894DEBF0FBECDBFDF91CF91ED
:101030000895CF93DF93CDB7DEB72A970FB6F89414
:10104000DEBF0FBECDBF9C838B834D835E836F83DA
:1010500078873A87298789859A85892B79F48B81C6
:101060009C81FC0180819181FC01208131814D8135
:101070008B819C81642FF90109954BC089859A85E4
:101080000A97D9F58D819E81AF81B885BB2344F540
:101090008B819C816DE20E94D8079A8389838D8120
:1010A0009E81AF81B885B095A095909581959F4F11
:1010B000AF4FBF4F8D839E83AF83B8878D819E8155
:1010C000AF81B885EB81FC812AE0AC01BD01CF0185
:1010D0000E942F099C0189819A81820F931F19C058
:1010E0008D819E81AF81B885EB81FC812AE0AC01C6
:1010F000BD01CF010E942F090CC029858D819E81E1
:10110000AF81B885EB81FC81AC01BD01CF010E94AC
:101110002F092A960FB6F894DEBF0FBECDBFDF9120
:10112000CF910895CF93DF93CDB7DEB728970FB651
:10113000F894DEBF0FBECDBF9A8389834B835C8357
:101140006D837E8338872F838F819885892B79F4EF
:1011500089819A81FC0180819181FC01208131810A
:101160004B8189819A81642FF90109950CC02F81E7
:101170008B819C81AD81BE81E981FA81AC01BD0189
:10118000CF010E942F0928960FB6F894DEBF0FBE3C
:10119000CDBFDF91CF910895CF93DF93CDB7DEB769
:1011A00028970FB6F894DEBF0FBECDBF9A83898310
:1011B0004B835C836D837E8338872F832F818B8164
:1011C0009C81AD81BE81E981FA81AC01BD01CF0175
:1011D0000E94A00928960FB6F894DEBF0FBECDBFBF
:1011E000DF91CF910895CF93DF9300D0CDB7DEB7D5
:1011F0009A83898389819A8161E071E00E94410725
:101200000F900F90DF91CF910895CF93DF9300D08F
:1012100000D000D0CDB7DEB79C838B837E836D83F7
:101220002D813E818B819C81B9010E94C0079A83E8
:1012300089838B819C810E94F3089C0189819A811A
:10124000820F931F9A83898389819A8126960FB68C
:10125000F894DEBF0FBECDBFDF91CF910895CF933D
:10126000DF93CDB7DEB7E3970FB6F894DEBF0FBEBE
:10127000CDBF9EA38DA34FA358A769A77AA72BA77D
:1012800080E290E09E012C5F3F4F820F931F9A8374
:10129000898389819A81FC0110828BA5823010F4A8
:1012A0008AE08BA78BA5282F30E040E050E08FA18B
:1012B00098A5A9A5BAA5BC01CD010E945114DC01D5
:1012C000CB018B838BA5282F30E040E050E08FA12D
:1012D00098A5A9A5BAA5BC01CD010E945114DA01B7
:1012E000C9018FA398A7A9A7BAA789819A81019755
:1012F0009A8389838B818A3020F48B8120E3280FA5
:1013000003C08B8127E3280F89819A81FC01208308
:101310008FA198A5A9A5BAA5892B8A2B8B2B11F68D
:1013200029813A818DA19EA1B9010E944107E396CE
:101330000FB6F894DEBF0FBECDBFDF91CF910895F9
:10134000CF92DF92EF92FF921F93CF93DF93CDB7AF
:10135000DEB768970FB6F894DEBF0FBECDBF9B8B8C
:101360008A8B4C8B5D8B6E8B7F8B288F1A821982B8
:101370002C893D894E895F896C897D898E899F89F9
:101380000E94F016882339F08A899B8964E071E015
:101390000E94C00738C18C899D89AE89BF896C01C4
:1013A0007D01E894F7F811E02FEF3FEF4FE75FE79B
:1013B000C701B6010E94F016882359F42FEF3FEFC2
:1013C0004FE75FE7C701B6010E941F1518160CF41E
:1013D00010E081E08127882339F08A899B8968E0C1
:1013E00071E00E94C0070FC12FEF3FEF4FE75FE4AE
:1013F0006C897D898E899F890E947E1618163CF41F
:101400008A899B896CE071E00E94C007FCC02FEFC5
:101410003FEF4FE75FEC6C897D898E899F890E9441
:101420001F1588233CF48A899B896CE071E00E9437
:10143000C007E9C020E030E0A9016C897D898E8970
:101440009F890E941F158823ACF48A899B896DE2CD
:101450000E94D8079C0189819A81820F931F9A83E9
:1014600089838C899D89AE89BF89B0588C8B9D8B6F
:10147000AE8BBF8B80E090E0A0E0BFE38B839C83CA
:10148000AD83BE831F8213C020E030E040E251E410
:101490006B817C818D819E810E942415DC01CB01B2
:1014A0008B839C83AD83BE838F818F5F8F839F816E
:1014B000888D981748F32B813C814D815E816C8922
:1014C0007D898E899F890E94B314DC01CB018C8BAE
:1014D0009D8BAE8BBF8B6C897D898E899F890E9485
:1014E0009D15DC01CB018C879D87AE87BF876C85FE
:1014F0007D858E859F850E94CC15DC01CB019C01EA
:10150000AD016C897D898E899F890E94B214DC01AE
:10151000CB0188879987AA87BB878C859D85AE85F7
:10152000BF85EA89FB892AE030E0AC01BD01CF012B
:101530000E9492089C0189819A81820F931F9A834D
:101540008983888D882369F08A899B8960E171E0AD
:101550000E94C0079C0189819A81820F931F9A8300
:10156000898344C020E030E040E251E46885798519
:101570008A859B850E948316DC01CB018887998729
:10158000AA87BB87688579858A859B850E94961581
:10159000DC01CB01998B888B288939898A899B89C1
:1015A0004AE050E0B9010E94F4079C0189819A81C8
:1015B000820F931F9A83898388899989092E000C49
:1015C000AA0BBB0BBC01CD010E94CE15DC01CB01E7
:1015D0009C01AD01688579858A859B850E94B2143E
:1015E000DC01CB0188879987AA87BB87888D9FEF0D
:1015F000980F988F91E0882309F490E0992309F0DF
:10160000B1CF89819A8168960FB6F894DEBF0FBE7C
:10161000CDBFDF91CF911F91FF90EF90DF90CF90E2
:1016200008951F920F9200905F000F9211248F93E4
:101630009F93AF93BF93CF93DF93CDB7DEB725973B
:10164000DEBFCDBF8091590290915A02A0915B02FA
:10165000B0915C0289839A83AB83BC8380915D02E5
:101660008D8389819A81AB81BC810196A11DB11DB9
:1016700089839A83AB83BC838D818D5F8D838D81BC
:101680008D3770F08D818D578D8389819A81AB81E3
:10169000BC810196A11DB11D89839A83AB83BC8354
:1016A0008D8180935D0289819A81AB81BC81809319
:1016B000590290935A02A0935B02B0935C0280910E
:1016C000550290915602A0915702B091580201968E
:1016D000A11DB11D8093550290935602A09357020D
:1016E000B09358020F900F900F900F900F90DF91D2
:1016F000CF91BF91AF919F918F910F9000925F001A
:101700000F901F901895CF93DF9300D000D01F92B9
:10171000CDB7DEB78FE590E0FC0180818983F89436
:101720008091590290915A02A0915B02B0915C02A3
:101730008A839B83AC83BD838FE590E02981FC0184
:1017400020838A819B81AC81BD81BC01CD010F903A
:101750000F900F900F900F90DF91CF910895CF933E
:10176000DF93CDB7DEB7789484E490E024E430E0F2
:10177000F90120812260FC01208384E490E024E4CC
:1017800030E0F90120812160FC01208385E490E0B4
:1017900025E430E0F90120812260FC01208385E40A
:1017A00090E025E430E0F90120812160FC012083F4
:1017B0008EE690E02EE630E0F90120812160FC0108
:1017C000208381E890E0FC01108281E890E021E82C
:1017D00030E0F90120812260FC01208381E890E063
:1017E00021E830E0F90120812160FC01208380E8BC
:1017F00090E020E830E0F90120812160FC012083A5
:1018000081EB90E021EB30E0F90120812460FC01C4
:10181000208380EB90E020EB30E0F9012081216013
:10182000FC0120838AE790E02AE730E0F90120817B
:101830002460FC0120838AE790E02AE730E0F90188
:1018400020812260FC0120838AE790E02AE730E0D3
:10185000F90120812160FC0120838AE790E02AE7DA
:1018600030E0F90120812068FC01208381EC90E0C8
:10187000FC011082DF91CF910895CF93DF9300D0C8
:101880001F92CDB7DEB78B838B818E3018F08B81A2
:101890008E508B838CE790E020910001222F30E066
:1018A0000024369527950794369527950794322F6F
:1018B000202D322F2B812770232BFC0120838AE7D8
:1018C00090E02AE730E0F90120812064FC012083C8
:1018D00000008AE790E0FC018081882F90E080740E
:1018E0009927892BB1F788E790E0FC0180818983F3
:1018F00089E790E0FC0180818A838A81882F90E0CB
:10190000382F22278981882F90E0822B932B0F90EC
:101910000F900F90DF91CF910895CF93DF9300D078
:1019200000D000D0CDB7DEB78C837E836D8361E0BD
:101930008C810E94490D8D819E81892B29F460E064
:101940008C810E94700E9CC08D819E818F3F91057D
:1019500029F461E08C810E94700E92C08C81882FE6
:1019600090E082559F4F9A83898389819A81FC01F7
:1019700084918B838B81882F90E08330910591F146
:101980008430910534F48130910571F00297D9F0DB
:1019900069C08730910509F447C08830910509F482
:1019A00052C0049781F15EC084E490E024E430E00A
:1019B000F90120812068FC01208387E490E02D81DB
:1019C000FC0120835DC084E490E024E430E0F90170
:1019D00020812062FC01208388E490E02D81FC01BD
:1019E00020834EC080E890E020E830E0F9012081BB
:1019F0002068FC01208388E890E02D813E81FC0175
:101A0000318320833DC080E890E020E830E0F90198
:101A100020812062FC0120838AE890E02D813E81B4
:101A2000FC01318320832CC080EB90E020EB30E080
:101A3000F90120812068FC01208383EB90E02D8157
:101A4000FC0120831DC080EB90E020EB30E0F90129
:101A500020812062FC01208384EB90E02D81FC0139
:101A600020830EC08D819E81803891052CF460E02A
:101A70008C810E94700E04C061E08C810E94700E07
:101A800026960FB6F894DEBF0FBECDBFDF91CF9183
:101A90000895CF93DF93CDB7DEB769970FB6F8946B
:101AA000DEBF0FBECDBF888F698F888D882F90E0F5
:101AB00086569F4F9A83898389819A81FC018491FC
:101AC0008B838B818C83888D882F90E08A579F4FE2
:101AD0009E838D838D819E81FC0184918F838F8174
:101AE00088878885882309F494C08885882F90E0AA
:101AF000880F991F88599F4F9A87898789859A856A
:101B0000FC0125913491CF013C872B879A878987E7
:101B10008B859C859E878D878885882F90E0880F90
:101B2000991F8E589F4F988B8F878F859889FC01BE
:101B300025913491CF013A8B298B988B8F87898996
:101B40009A899C8B8B8B898D882331F58FE590E06A
:101B5000FC0180818D8BF8948D859E85FC018081B0
:101B6000982F8C8180958923282F8D859E85FC0157
:101B700020838B899C89FC018081982F8C818095A2
:101B80008923282F8B899C89FC0120838FE590E095
:101B90002D89FC0120833DC0898D823021F58FE5A0
:101BA00090E0FC0180818E8BF8948D859E85FC01F0
:101BB0008081982F8C8180958923282F8D859E8503
:101BC000FC0120838B899C89FC0190818C81292FC9
:101BD000282B8B899C89FC0120838FE590E02E893E
:101BE000FC01208316C08FE590E0FC0180818F8B83
:101BF000F8948D859E85FC0190818C81292F282B5E
:101C00008D859E85FC0120838FE590E02F89FC0166
:101C1000208369960FB6F894DEBF0FBECDBFDF916B
:101C2000CF910895CF93DF931F92CDB7DEB789830D
:101C30008981882F90E08330910591F0843091055F
:101C400034F48130910501F1029741F145C08730AC
:101C5000910571F188309105A9F1049759F03CC0C4
:101C600080E890E020E830E0F90120812F77FC0146
:101C7000208332C080E890E020E830E0F901208144
:101C80002F7DFC01208328C084E490E024E430E030
:101C9000F90120812F77FC0120831EC084E490E0AD
:101CA00024E430E0F90120812F7DFC01208314C061
:101CB00080EB90E020EB30E0F90120812F77FC01F0
:101CC00020830AC080EB90E020EB30E0F901208116
:101CD0002F7DFC01208300000F90DF91CF910895AC
:101CE000CF93DF93CDB7DEB765970FB6F894DEBF1D
:101CF0000FBECDBF8C8B6D8B8C89882F90E0825569
:101D00009F4F9A83898389819A81FC0184918B8377
:101D10008B818C838C89882F90E086569F4F9E8381
:101D20008D838D819E81FC0184918F838F81888733
:101D30008C89882F90E08A579F4F9A878987898559
:101D40009A85FC0184918B878B858C878C85882371
:101D500009F444C08C81882319F08C810E94120EF2
:101D60008C85882F90E0880F991F8E589F4F9E87F3
:101D70008D878D859E85FC0125913491CF01388B0F
:101D80002F879E878D878F8598899A8B898B8FE582
:101D900090E0FC0180818B8BF8948D89882371F40D
:101DA00089899A89FC018081982F8885809589236B
:101DB000282F89899A89FC0120830BC089899A89F7
:101DC000FC0190818885292F282B89899A89FC011B
:101DD00020838FE590E02B89FC01208365960FB668
:101DE000F894DEBF0FBECDBFDF91CF910895CF93A2
:101DF000DF93CDB7DEB761970FB6F894DEBF0FBEA5
:101E0000CDBF898B8989882F90E082559F4F9A8317
:101E1000898389819A81FC0184918B838B818C8356
:101E20008989882F90E086569F4F9E838D838D8170
:101E30009E81FC0184918F838F8188878989882F77
:101E400090E08A579F4F9A87898789859A85FC01F8
:101E500084918B878B858C878C85882319F480E00F
:101E600090E026C08C81882319F08C810E94120E8C
:101E70008C85882F90E0880F991F84589F4F9E87EC
:101E80008D878D859E85FC0125913491CF01388BFE
:101E90002F879E878D878F859889FC019081888503
:101EA0008923882319F081E090E002C080E090E06F
:101EB00061960FB6F894DEBF0FBECDBFDF91CF9114
:101EC0000895AF92BF92CF92DF92EF92FF920F935D
:101ED0001F93CF93DF93CDB7DEB764970FB6F89417
:101EE000DEBF0FBECDBF69837A838B839C832D8336
:101EF0003E834F835887E986FA860B871C87AD8619
:101F0000BE86CF86D88A29813A814B815C818D81BA
:101F10009E81AF81B885281739074A075B0744F4CB
:101F20008D819E81AF81B88589839A83AB83BC8381
:101F300029813A814B815C8189859A85AB85BC85F5
:101F400082179307A407B50744F489859A85AB8562
:101F5000BC8589839A83AB83BC8329813A814B8179
:101F60005C818D819E81AF81B88579018A01E81AF3
:101F7000F90A0A0B1B0B29A13AA14BA15CA18D8583
:101F80009E85AF85B88959016A01A81AB90ACA0A9B
:101F9000DB0AD601C501A8019701BC01CD010E9451
:101FA00041147B018C0129853A854B855C858D81A7
:101FB0009E81AF81B885281B390B4A0B5B0BC8018A
:101FC000B7010E947314DA01C9019C01AD018D852E
:101FD0009E85AF85B889820F931FA41FB51FBC01D2
:101FE000CD0164960FB6F894DEBF0FBECDBFDF9172
:101FF000CF911F910F91FF90EF90DF90CF90BF9006
:10200000AF900895CF93DF93CDB7DEB70E94F5165A
:10201000CF93DF9300D000D01F92CDB7DEB7898376
:102020007B836A835D834C838981882F90E08E5700
:102030009D4FFC018081881F8827881F882331F0ED
:102040008A819B81FC011182108272C08981282FB4
:1020500030E0C901880F991F820F931F880F991FC5
:10206000880F991F9C018981882F90E08E579D4F82
:10207000FC018081082E000C990B280F391F8091DC
:102080008302882F90E0281739074CF58981282F83
:1020900030E0C901880F991F820F931F880F991F85
:1020A000880F991F9C018981882F90E08E579D4F42
:1020B000FC018081082E000C990B280F391FC901E3
:1020C000880F991F820F931F825A9D4FFC018081B8
:1020D00086FB882780F9813011F481E001C080E01F
:1020E000882331F18981282F30E0C901880F991F99
:1020F000820F931F880F991F880F991F9C01898158
:10210000882F90E08E579D4FFC018081082E000C97
:10211000990B280F391FC901880F991F820F931F30
:10212000825A9D4FFC0180818F7360E00E94700E87
:102130008981882F90E09C012E573D4FF901208125
:102140002F5F8E579D4FFC0120838981282F30E01F
:10215000C901880F991F820F931F880F991F880F3D
:10216000991F9C018981882F90E08E579D4FFC011B
:102170008081082E000C990B280F391F8091830253
:10218000882F90E0281739075CF48981882F90E028
:102190008E579D4FFC0180818C3014F481E001C08A
:1021A00080E0882309F47FC08A819B81FC01408103
:1021B00051818981282F30E0C901880F991F820F32
:1021C000931F880F991F880F991F9C018981882F61
:1021D00090E08E579D4FFC018081082E000C990BDA
:1021E000280F391FC901880F991F820F931F815A29
:1021F0009D4FFC01808191819A01280F391F8C81AC
:102200009D81FC01318320838981282F30E0C90121
:10221000880F991F820F931F880F991F880F991F8E
:102220009C018981882F90E08E579D4FFC01808111
:10223000082E000C990B280F391FC901880F991F10
:10224000820F931F825A9D4FFC01808186FB882755
:1022500080F9882309F451C08981282F30E0C90111
:10226000880F991F820F931F880F991F880F991F3E
:102270009C018981882F90E08E579D4FFC018081C1
:10228000082E000C990B280F391FC901880F991FC0
:10229000820F931F825A9D4FFC0180818F7361E0F2
:1022A0000E94700E2AC08A819B81FC0180819181ED
:1022B000049621E080349C4908F020E0222341F07C
:1022C0008C819D8120E43CE9FC01318320830DC099
:1022D0008A819B81FC01808191819C012C5F3F4F11
:1022E0008C819D81FC01318320838981882F90E03E
:1022F0008E579D4F2FEFFC0120830F900F900F9072
:102300000F900F90DF91CF9108951F920F92009040
:102310005F000F9211242F933F934F935F936F931E
:102320007F938F939F93AF93BF93EF93FF93CF933D
:10233000DF93CDB7DEB748E850E064E870E080E0B6
:102340000E940810DF91CF91FF91EF91BF91AF9163
:102350009F918F917F916F915F914F913F912F91BD
:102360000F9000925F000F901F901895CF93DF930E
:102370001F92CDB7DEB789838981882301F580E874
:1023800090E0FC01108281E890E022E0FC012083D3
:1023900084E890E0FC011182108286E390E026E35D
:1023A00030E0F90120812260FC0120838FE690E07B
:1023B0002FE630E0F90120812260FC0120830F909C
:1023C000DF91CF910895CF93DF9300D0CDB7DEB7E3
:1023D0008A83198225C08A81282F30E0C901880F9D
:1023E000991F820F931F880F991F880F991F9C01B7
:1023F0008981882F90E0280F391FC901880F991F04
:10240000820F931F825A9D4FFC01808186FB882793
:1024100080F9813011F481E007C089818F5F898361
:1024200089818C30C0F280E00F900F90DF91CF91C6
:102430000895CF93DF9300D0CDB7DEB79A83898319
:10244000809183028C30E8F42091830281E0820F36
:102450008093830289819A81FC01208389819A81FA
:10246000FC018081282F30E0C901880F991F820F5D
:10247000931F815A9D4F28EB3BE0FC013183208361
:1024800005C089819A812FEFFC0120830F900F9066
:10249000DF91CF910895CF93DF9300D000D0CDB7D7
:1024A000DEB79A8389837C836B836B817C8189818E
:1024B0009A8120E639E040E252E00E9466120F90D5
:1024C0000F900F900F90DF91CF910895CF93DF93EE
:1024D000CDB7DEB729970FB6F894DEBF0FBECDBFDC
:1024E0009B838A837D836C835F834E8339872887B0
:1024F0008A819B81FC0180818C3008F06DC08C81C9
:1025000061E00E94490D8A819B81FC018081282F16
:1025100030E08C81482F4F73C901880F991F820FBB
:10252000931F825A9D4F242F2F73FC013081307CE2
:10253000232BFC01208320E232E08E819F81A901C0
:10254000481B590BCA0199230CF40396959587955E
:1025500095958795282F8A819B81FC01218320E610
:1025600039E088859985A901481B590BCA0199232F
:102570000CF403969595879595958795282F8A81D4
:102580009B81FC0122838A819B81FC0190818BEAE3
:10259000989F812D112486958695869589838981BA
:1025A0000E94E311982F81E08927882319F08981FF
:1025B0000E94B6118A819B81FC018081282F30E026
:1025C000C901880F991F820F931F825A9D4FFC01EA
:1025D00020812064FC0120838A819B81FC01808111
:1025E00029960FB6F894DEBF0FBECDBFDF91CF9115
:1025F00008956F927F928F929F92AF92BF92CF92E7
:10260000DF92EF92FF920F931F93CF93DF9300D04F
:1026100000D0CDB7DEB79A8389837C836B838B81AF
:102620009C81803292400CF05CC08B819C8199230C
:1026300014F41C821B828B819C81853B910524F0C4
:1026400084EB90E09C838B8389819A81FC01828159
:10265000082E000C990B28E532E0A901481B590B04
:10266000CA01880F991F880F991F092E000CAA0B09
:10267000BB0B29813A81F9012181022E000C330B19
:1026800048E850E0BA01621B730B9B01220F331F15
:10269000220F331F032E000C440B550B6B817C81E2
:1026A0003B01770F880899086B2F6F936A2F6F9300
:1026B000692F6F938F9359016A0114EBE12EF12C6E
:1026C00000E010E020E030E0A901C401B3010E9465
:1026D000610F0F900F900F900F90DC01CB019C8346
:1026E0008B832B813C8189819A81B9010E948B1354
:1026F0000F900F900F900F90DF91CF911F910F913E
:10270000FF90EF90DF90CF90BF90AF909F908F9011
:102710007F906F900895CF93DF9300D000D000D0CA
:10272000CDB7DEB79C838B837E836D838B819C8149
:10273000FC018081898389818C3008F099C08B816C
:102740009C81FC018181082E000C990B28E830E067
:10275000A901481B590BCA019C01220F331F220FEC
:10276000331F8D819E8182179307A4F48B819C81F6
:10277000FC018181082E000C990B28E830E0A901AA
:10278000481B590BCA01880F991F880F991F9E83F8
:102790008D832AC08B819C81FC018281082E000CD4
:1027A000990B28E532E0A901481B590BCA019C018D
:1027B000220F331F220F331F8D819E812817390767
:1027C0009CF48B819C81FC018281082E000C990B6A
:1027D00028E532E0A901481B590BCA01880F991F4F
:1027E000880F991F9E838D838D819E8102979E8382
:1027F0008D838D819E81092E000CAA0BBB0B880F47
:10280000991FAA1FBB1F880F991FAA1FBB1F880FE4
:10281000991FAA1FBB1F880F991FAA1FBB1FBB238D
:102820001CF40796A11DB11D689412F8B595A795E3
:10283000979587951694D1F79E838D838FE590E0C9
:10284000FC0180818A83F8948981282F30E04D81B2
:102850005E81C901880F991F820F931F815A9D4F76
:10286000FC01518340838FE590E02A81FC012083A5
:1028700026960FB6F894DEBF0FBECDBFDF91CF9185
:102880000895DB018F939F930E949214BF91AF91A3
:10289000A29F800D911DA39F900DB29F900D1124BA
:1028A0000895A1E21A2EAA1BBB1BFD010DC0AA1F91
:1028B000BB1FEE1FFF1FA217B307E407F50720F0A9
:1028C000A21BB30BE40BF50B661F771F881F991F24
:1028D0001A9469F760957095809590959B01AC016D
:1028E000BD01CF010895052E97FB1EF400940E94B0
:1028F0008A1457FD07D00E94511407FC03D04EF4F0
:102900000C948A1450954095309521953F4F4F4F28
:102910005F4F089590958095709561957F4F8F4F8B
:102920009F4F08950E94A314A59F900DB49F900DF2
:10293000A49F800D911D11240895EE0FFF1F059097
:10294000F491E02D0994A29FB001B39FC001A39F11
:10295000700D811D1124911DB29F700D811D1124D8
:10296000911D08955058BB27AA270E94CA140C94A1
:1029700044160E94361638F00E943D1620F039F4B5
:102980009F3F19F426F40C9433160EF4E095E7FB00
:102990000C942D16E92F0E94551658F3BA176207AA
:1029A00073078407950720F079F4A6F50C94771641
:1029B0000EF4E0950B2EBA2FA02D0B01B90190015A
:1029C0000C01CA01A0011124FF27591B99F0593F9E
:1029D00050F4503E68F11A16F040A22F232F342FE6
:1029E0004427585FF3CF469537952795A795F04034
:1029F0005395C9F77EF41F16BA0B620B730B840B49
:102A0000BAF09150A1F0FF0FBB1F661F771F881F00
:102A1000C2F70EC0BA0F621F731F841F48F4879558
:102A200077956795B795F7959E3F08F0B0CF93954A
:102A3000880F08F09927EE0F9795879508950E94C3
:102A4000091608F481E008950E9438150C94441684
:102A50000E943D1658F00E94361640F029F45F3F60
:102A600029F00C942D1651110C9478160C943316F1
:102A70000E94551668F39923B1F3552391F3951BE2
:102A8000550BBB27AA2762177307840738F09F5F8F
:102A90005F4F220F331F441FAA1FA9F335D00E2EFC
:102AA0003AF0E0E832D091505040E695001CCAF769
:102AB0002BD0FE2F29D0660F771F881FBB1F26172C
:102AC00037074807AB07B0E809F0BB0B802DBF0103
:102AD000FF2793585F4F3AF09E3F510578F00C94D2
:102AE0002D160C9478165F3FE4F3983ED4F3869548
:102AF00077956795B795F7959F5FC9F7880F911DF3
:102B00009695879597F90895E1E0660F771F881FDE
:102B1000BB1F621773078407BA0720F0621B730B91
:102B2000840BBA0BEE1F88F7E09508950E949D155F
:102B30006894B1110C94781608950E945D1688F07F
:102B40009F5798F0B92F9927B751B0F0E1F0660F71
:102B5000771F881F991F1AF0BA95C9F714C0B130B2
:102B600091F00E947716B1E008950C947716672FC4
:102B7000782F8827B85F39F0B93FCCF386957795E1
:102B80006795B395D9F73EF49095809570956195CA
:102B90007F4F8F4F9F4F0895E89409C097FB3EF4F5
:102BA00090958095709561957F4F8F4F9F4F99239A
:102BB000A9F0F92F96E9BB279395F6958795779518
:102BC0006795B795F111F8CFFAF4BB0F11F460FFD8
:102BD0001BC06F5F7F4F8F4F9F4F16C0882311F030
:102BE00096E911C0772321F09EE8872F762F05C044
:102BF000662371F096E8862F70E060E02AF09A95DF
:102C0000660F771F881FDAF7880F9695879597F9D3
:102C10000895990F0008550FAA0BE0E8FEEF16166D
:102C20001706E807F907C0F012161306E407F507C0
:102C300098F0621B730B840B950B39F40A2661F034
:102C4000232B242B252B21F408950A2609F4A140D7
:102C5000A6958FEF811D811D089597F99F6780E8E4
:102C600070E060E008959FEF80EC089500240A94DE
:102C70001616170618060906089500240A94121657
:102C80001306140605060895092E0394000C11F48A
:102C9000882352F0BB0F40F4BF2B11F460FF04C037
:102CA0006F5F7F4F8F4F9F4F089557FD9058440F90
:102CB000551F59F05F3F71F04795880F97FB991F9B
:102CC00061F09F3F79F08795089512161306140658
:102CD000551FF2CF4695F1DF08C0161617061806E5
:102CE000991FF1CF86957105610508940895E894C0
:102CF000BB2766277727CB0197F908950E9409160D
:102D000008F48FEF08950E9496160C9444160E94C2
:102D1000361638F00E943D1620F0952311F00C94E1
:102D20002D160C94331611240C9478160E94551607
:102D300070F3959FC1F3950F50E0551F629FF0010E
:102D4000729FBB27F00DB11D639FAA27F00DB11D27
:102D5000AA1F649F6627B00DA11D661F829F2227B0
:102D6000B00DA11D621F739FB00DA11D621F839F37
:102D7000A00D611D221F749F3327A00D611D231F0D
:102D8000849F600D211D822F762F6A2F11249F575B
:102D900050409AF0F1F088234AF0EE0FFF1FBB1F5E
:102DA000661F771F881F91505040A9F79E3F51051D
:102DB00080F00C942D160C9478165F3FE4F3983E47
:102DC000D4F3869577956795B795F795E7959F5FC7
:102DD000C1F7FE2B880F911D9695879597F9089559
:102DE0000E940916880B990B089581E090E0F894F1
:102DF0000C940317FC0101900020E9F78095909551
:0A2E00008E0F9F1F0895F894FFCF76
:102E0A00010D0A006E616E00696E66006F766600DB
:102E1A002E004C696768743A206176672800292079
:102E2A006D696E280029206D6178280029206D615E
:102E3A00702800292054454D503A2064656743287C
:102E4A00002920646567462800290000000000F177
:102E5A000472070604530427048E040000000002CB
:102E6A001072070210021002100210000000000285
:042E7A0010720700CB
:00000001FF
