S010000047656F63616368652E7372656305
S11300000C9464000C948C000C948C000C945E088A
S11300100C945E080C945E080C948C000C948C0078
S11300200C948C000C948C000C948C000C948C001C
S11300300C948C000C948C000C948C000C948C000C
S11300400C9473060C948C000C94FC040C942A05F8
S11300500C948C000C948C000C948C000C948C00EC
S11300600C948C000C948C000000000024002700E9
S11300702A0000000000250028002B0000000000DA
S113008023002600290004040404040404040202D6
S11300900202020203030303030301020408102003
S11300A0408001020408102001020408102000000E
S11300B00008000201000003040700000000000023
S11300C000008E009305960011241FBECFEFD8E0E8
S11300D0DEBFCDBF11E0A0E0B1E0E0E4FBE102C08F
S11300E005900D92A63AB107D9F723E0A6EAB1E04C
S11300F001C01D92A137B207E1F710E0C3E6D0E0DA
S113010004C02197FE010E94010CC136D107C9F732
S11301100E9412010C94930D0C94000020E047E01F
S113012068E086EA91E00E943109089586EA91E048
S11301300E94D80808959F92AF92BF92DF92EF92E7
S1130140FF920F931F93CF93DF9380E8E5ECF1E0E8
S1130150DF011D928A95E9F78F010F2EF4E2FF2E3D
S1130160F02D99249394E12CD92CAA24A394B12C96
S1130170CE2D01C0C82F86EA91E00E94EF070196B8
S1130180D1F386EA91E00E947907EC2FF0E0EB537B
S1130190FE4F8083CC2331F0843221F4F801F082C5
S11301A0CD2DE9CFD8018C91843229F781E08C0FD1
S11301B0EC2FF0E0EB53FE4F90819A30D9F690E0AB
S11301C0FC01ED53FE4F1082EC012597FE01EB5329
S11301D0FE4F20812A3261F640E150E060E070E099
S11301E08F539E4F0E94070CC230D10574F08A2DA4
S11301F09B2D292DFC01EB53FE4F808168272F5F37
S1130200822F90E08C179D07ACF36111B1CFDF9181
S1130210CF911F910F91FF90EF90DF90BF90AF901F
S11302209F9008950E94E50626E040E052EC61E0CC
S113023070E085E492E00E94A50140E855E260E0A8
S113024070E086EA91E00E945C0961E171E086EA6F
S113025091E00E94490662E271E086EA91E00E9420
S113026049066BE371E086EA91E00E9449060E9428
S11302709B0065EC71E085E492E00E944906F7CFAB
S1130280CF93DF9300D01F92CDB7DEB79B838A83D1
S11302908A819B81FC01848D882F90E02A813B8197
S11302A0820F931F835A9F4FFC01808189838A8127
S11302B09B81FC01848D882F90E001968F77907844
S11302C0992324F4019780689F6F0196282F8A81CF
S11302D09B81FC01248F8A819B81FC0186899789FB
S11302E02981FC0120838A819B81FC018089918979
S11302F02A813B81F90120893189F9012081206417
S1130300FC0120838A819B81FC01238D8A819B814E
S1130310FC01948D81E0291709F080E0882379F0AD
S11303208A819B81FC01828993892A813B81F9011D
S113033022893389F90120812F7DFC0120830F90CC
S11303400F900F90DF91CF910895CF93DF93CDB7A6
S1130350DEB761970FB6F894DEBF0FBECDBF9C83A6
S11303608B834D835E836F837887298780E099E050
S1130370ADE3B0E02D813E814F815885BC01CD01B4
S11303800E94AC0BDA01C9010197A109B109B69524
S1130390A795979587959A8389838B819C81FC0186
S11303A08089918922E0FC0120838D819E81AF8127
S11303B0B8858115914EA105B10529F089819A81ED
S11303C081159041F0F08B819C81FC018089918999
S11303D0FC01108280E894E8AEE1B0E02D813E811A
S11303E04F815885BC01CD010E94AC0BDA01C901D3
S11303F00197A109B109B695A795979587959A8311
S113040089838B819C81FC018485958529813A812E
S1130410232F3327FC0120838B819C81FC0186855B
S113042097852981FC0120838B819C81FC01108E9E
S11304308B819C81FC01848995892985FC01208319
S11304408B819C81FC01828993892B813C81F901F8
S113045022893389F90120812061FC0120838B8169
S11304609C81FC01828993892B813C81F901228939
S11304703389F90120812860FC0120838B819C81D0
S1130480FC01828993892B813C81F901228933897A
S1130490F90120812068FC0120838B819C81FC016F
S11304A0828993892B813C81F90122893389F9015D
S11304B020812F7DFC01208361960FB6F894DEBF66
S11304C00FBECDBFDF91CF910895CF93DF9300D0BE
S11304D0CDB7DEB79A83898389819A81FC01818DA6
S11304E0882F90E09C01205C3F4F89819A81FC0118
S11304F0828D882F90E0A901481B590BCA018F7384
S113050099270F900F90DF91CF910895CF93DF93A8
S113051000D0CDB7DEB79A83898389819A81FC01A3
S1130520218D89819A81FC01928D81E0291709F03E
S113053080E0882319F08FEF9FEF0FC089819A81A3
S1130540FC01828D882F90E029813A81820F931FCC
S11305504D96FC018081882F90E00F900F90DF91E1
S1130560CF910895CF93DF9300D01F92CDB7DEB71C
S11305709B838A838A819B81FC01218D8A819B8153
S1130580FC01928D81E0291709F080E0882319F09D
S11305908FEF9FEF1CC08A819B81FC01828D882F85
S11305A090E02A813B81820F931F4D96FC0180814C
S11305B089838A819B81FC01828D8F5F282F2F7311
S11305C08A819B81FC01228F8981882F90E00F9082
S11305D00F900F90DF91CF910895CF93DF9300D0C8
S11305E0CDB7DEB79A83898389819A81FC01908D86
S11305F081E08927882309F04EC02DC08FE590E063
S1130600FC01808188237CF089819A81FC018289A4
S11306109389FC018081882F90E080729927892B2F
S113062011F081E001C080E08823A9F089819A81DA
S1130630FC0180899189FC018081882F90E080727F
S1130640992721E0892B09F420E0222321F08981D4
S11306509A810E94400189819A81FC01828993894F
S1130660FC018081882F90E080729927892B69F49E
S113067089819A81FC0180899189FC018081882F7C
S113068090E080749927892B11F481E001C080E007
S1130690882309F0B3CF0F900F90DF91CF91089585
S11306A0CF93DF9300D000D0CDB7DEB79B838A838E
S11306B06C838A819B8121E0FC01208F8A819B814C
S11306C0FC01238D8A819B81FC01848D281779F498
S11306D08A819B81FC0180899189FC018081882F1A
S11306E090E080729927892B11F081E001C080E0AD
S11306F08823D1F08A819B81FC01868997892C818A
S1130700FC0120838A819B81FC01808991892A8153
S11307103B81F90120893189F90120812064FC01A0
S1130720208381E090E060C08A819B81FC01838DFD
S1130730882F90E001968F779078992324F401977D
S113074080689F6F019689831FC08FE590E0FC014C
S113075080818095881F8827881F8823A9F08A8133
S11307609B81FC0180899189FC018081882F90E024
S11307708072992721E0892B09F420E0222321F0BB
S11307808A819B810E9440018A819B81FC01248D86
S113079081E09981291709F080E08823B1F68A81E4
S11307A09B81FC01838D882F90E02A813B81820FFD
S11307B0931F835A9F4F2C81FC0120838A819B8144
S11307C02981FC01238F8A819B81FC018289938981
S11307D02A813B81F90122893389F9012081206230
S11307E0FC01208381E090E00F900F900F900F9018
S11307F0DF91CF910895CF93DF9300D0CDB7DEB7CB
S11308009A83898389819A8121E931E0FC013183CA
S1130810208389819A81FC01138212820F900F90A8
S1130820DF91CF910895CF93DF9300D0CDB7DEB79A
S11308309A83898389819A810E94FB0389819A81A1
S113084021E831E0FC013183208329813A8188EE5B
S113085093E0A0E0B0E0F90184839583A683B78395
S11308600F900F90DF91CF910895CF92DF92EF9286
S1130870FF920F931F93CF93DF93CDB7DEB72E97DD
S11308800FB6F894DEBF0FBECDBF9A8389837C83F5
S11308906B835E834D8338872F831A870987FC8691
S11308A0EB86DE86CD8689819A810E941304898134
S11308B09A8121E731E0FC013183208389819A8187
S11308C02B813C81FC013587248789819A812D8184
S11308D03E81FC013787268789819A812F8138855B
S11308E0FC01318B208B89819A8129853A85FC0111
S11308F0338B228B89819A812B853C85FC01358B36
S1130900248B89819A812D853E85FC01378B268B2A
S113091089819A81FC01118E89819A81FC01128E50
S113092089819A81FC01138E89819A81FC01148E3C
S11309302E960FB6F894DEBF0FBECDBFDF91CF91D8
S11309401F910F91FF90EF90DF90CF900895CF9378
S1130950DF9300D000D0CDB7DEB79C838B838B812F
S11309609C81FC0180899189FC018081882F90E021
S11309708470992721E0892B09F020E0222371F16A
S11309808B819C81FC0186899789FC018081898304
S11309908B819C81FC01818D8F5F8F738A838B8116
S11309A09C81FC01228D81E09A81291709F480E061
S11309B0882399F08B819C81FC01818D882F90E0A4
S11309C02B813C81820F931F4D962981FC0120834A
S11309D08B819C812A81FC01218F07C08B819C81A2
S11309E0FC0186899789FC0180810F900F900F90FC
S11309F00F90DF91CF9108951F920F9200905F00A6
S1130A000F9211242F933F934F935F936F937F9390
S1130A108F939F93AF93BF93EF93FF93CF93DF9302
S1130A20CDB7DEB785E492E00E94A704DF91CF91B1
S1130A30FF91EF91BF91AF919F918F917F916F91B2
S1130A405F914F913F912F910F9000925F000F9013
S1130A501F9018951F920F9200905F000F9211241F
S1130A602F933F934F935F936F937F938F939F93B2
S1130A70AF93BF93EF93FF93CF93DF93CDB7DEB7DD
S1130A8085E492E00E944001DF91CF91FF91EF91C4
S1130A90BF91AF919F918F917F916F915F914F9192
S1130AA03F912F910F9000925F000F901F90189527
S1130AB0CF92DF92EF92FF920F931F93CF93DF9326
S1130AC000D000D0CDB7DEB79A8389837C836B8353
S1130AD089819A810197D1F48B819C810196B1F42B
S1130AE00F2EF6ECCF2ED12CF02D0F2EF2ECEF2E94
S1130AF0F12CF02D01EC10E020EC30E044EC50E05F
S1130B0065EC70E085E492E00E9435040F900F904C
S1130B100F900F90DF91CF911F910F91FF90EF9065
S1130B20DF90CF900895CF93DF93CDB7DEB76FEF0B
S1130B307FEF81E090E00E945805DF91CF91089506
S1130B400F931F93CF93DF9300D000D0CDB7DEB7C0
S1130B509A8389837C836B838B819C81892B19F491
S1130B6080E090E015C089819A81FC0180819181A7
S1130B700296FC01008111818B819C810E94260DCB
S1130B80AC012B813C8189819A81B901F8010995D5
S1130B900F900F900F900F90DF91CF911F910F91B5
S1130BA00895CF93DF93CDB7DEB728970FB6F894A7
S1130BB0DEBF0FBECDBF9C838B837E836D8358873E
S1130BC04F831A82198223C08B819C81FC0180810E
S1130BD09181FC01208131818D819E81AC014F5F27
S1130BE05F4F5E834D83FC0140818B819C81642F28
S1130BF0F901099521E0892B09F420E0222331F041
S1130C0089819A8101969A83898301C00DC08F815D
S1130C1098859C012150310938872F8321E0892B45
S1130C2009F420E0222381F689819A8128960FB65F
S1130C30F894DEBF0FBECDBFDF91CF910895CF935F
S1130C40DF9300D000D0CDB7DEB79A8389837C834D
S1130C506B832B813C8189819A81B9010E94A00513
S1130C600F900F900F900F90DF91CF910895CF9335
S1130C70DF9300D0CDB7DEB79A83898389819A81C7
S1130C8060E071E00E94A0050F900F90DF91CF917A
S1130C900895CF93DF9300D000D000D0CDB7DEB756
S1130CA09C838B837E836D832D813E818B819C818C
S1130CB0B9010E941F069A8389838B819C810E94BB
S1130CC037069C0189819A81820F931F9A838983B5
S1130CD089819A8126960FB6F894DEBF0FBECDBFE8
S1130CE0DF91CF9108951F920F9200905F000F92B1
S1130CF011248F939F93AF93BF93CF93DF93CDB77B
S1130D00DEB72597DEBFCDBF8091260390912703E0
S1130D10A0912803B091290389839A83AB83BC8370
S1130D2080912A038D8389819A81AB81BC8101964C
S1130D30A11DB11D89839A83AB83BC838D818D5F93
S1130D408D838D818D3770F08D818D578D83898151
S1130D509A81AB81BC810196A11DB11D89839A83BF
S1130D60AB83BC838D8180932A0389819A81AB8173
S1130D70BC818093260390932703A0932803B09308
S1130D8029038091220390912303A0912403B0911D
S1130D9025030196A11DB11D809322039093230383
S1130DA0A0932403B09325030F900F900F900F90FE
S1130DB00F90DF91CF91BF91AF919F918F910F9041
S1130DC000925F000F901F901895CF93DF93CDB7DB
S1130DD0DEB7789484E490E024E430E0F9012081E3
S1130DE02260FC01208384E490E024E430E0F901F3
S1130DF020812160FC01208385E490E025E430E03B
S1130E00F90120812260FC01208385E490E025E43F
S1130E1030E0F90120812160FC0120838EE690E01E
S1130E202EE630E0F90120812160FC01208381E875
S1130E3090E0FC01108281E890E021E830E0F901C3
S1130E4020812260FC01208381E890E021E830E0E9
S1130E50F90120812160FC01208380E890E020E8F2
S1130E6030E0F90120812160FC01208381EB90E0D6
S1130E7021EB30E0F90120812460FC01208380EB28
S1130E8090E020EB30E0F90120812160FC01208317
S1130E908AE790E02AE730E0F90120812460FC0130
S1130EA020838AE790E02AE730E0F901208122607C
S1130EB0FC0120838AE790E02AE730E0F9012081F1
S1130EC02160FC0120838AE790E02AE730E0F90101
S1130ED020812068FC01208381EC90E0FC011082D9
S1130EE0DF91CF910895CF93DF93CDB7DEB70E9402
S1130EF0180D20916D0330916E0328173907B9F44A
S1130F0090912B0380912C03981789F0E0912B0387
S1130F10F0E0E35DFC4F808120912B0330E02F5FF4
S1130F203F4F2F73332720932B0390E008958FEFC7
S1130F309FEF08951F93CF93DF93DC015C962D916F
S1130F403C915D972115310539F481E090E01396C9
S1130F509C938E9312973DC05196ED91FC915297BC
S1130F6050969C915097892F80951FB75E964C910F
S1130F705E9741FB772770F941FD6095F8944081B5
S1130F80772311F0492B01C048234083E9012197BD
S1130F90F1F748E0508160FF02C0592B01C058238B
S1130FA05083E9012197F1F76695415099F777232A
S1130FB021F090818923808303C08081982B9083C2
S1130FC01FBF5C968D919C915D970197F1F721E08D
S1130FD030E0C901DF91CF911F91089508952091C8
S1130FE06D0330916E032817390771F490912B0328
S1130FF080912C03981741F0E0912B03F0E0E35D1E
S1131000FC4F808190E008958FEF9FEF0895209129
S11310106D0330916E032817390771F480912C0306
S113102020912B0390E0805C9F4F821B910960E428
S113103070E00E94980B089580E090E00895E0919C
S11310406D03F0916E03E817F90769F4A389B48975
S11310509C918589809589238C9310926E031092BC
S11310606D0381E0089580E00895CF93DF93EC0150
S11310708A8D9B8D892BF1F080916D0390916E0385
S11310808C179D07B9F0009711F00E941F088E8DF0
S11310908E7F8E8F10922C0310922B03D0936E03AD
S11310A0C0936D03EB89FC8990818D89892B8083A2
S11310B081E001C080E0DF91CF9108951F920F92EB
S11310C00FB60F9211242F933F934F935F936F9317
S11310D07F938F939F93AF93BF93EF93FF93E0918D
S11310E06D03F0916E03309709F451C0968DA68577
S11310F0B785858591FF04C09C91892329F447C055
S11311009C91892309F043C0A389B4899C91858962
S1131110809589238C93868997890197F1F7608D4F
S1131120718DA685B785558538E020E0CB01019700
S1131130F1F7822F90E095958795282F4C914523C0
S113114009F02068315091F7868D81FD20958091BA
S11311502C0390E001968F73992730912B03381755
S113116049F0A0912C03B0E0A35DBC4F2C93809375
S11311702C0303C0868D8160868F828D938D0197A9
S1131180F1F7A389B4899C918589892B8C93FF916C
S1131190EF91BF91AF919F918F917F916F915F91EB
S11311A04F913F912F910F900FBE0F901F90189564
S11311B029E931E0FC01318320830C941F081F933B
S11311C0CF93DF93EC01162F6E8D6695617081E0ED
S11311D06827812F0E94110B61E0812F0E94EA0988
S11311E0612F70E0FB01E656FF4FE491E88BFB01B1
S11311F0EA57FF4FE491F0E0EE0FFF1FEE58FF4F68
S1131200859194919A8B898BDF91CF911F91089549
S11312101F93CF93DF93EC01162F60E0812F0E9480
S1131220EA098E8D81FD04C061E0812F0E94110BBB
S11312301C87612F70E0FB01E656FF4FE491ED87B8
S1131240FB01EA57FF4FE491F0E0EE0FFF1FE45873
S1131250FF4F859194919F878E87DF91CF911F9146
S113126008951F93CF93DF93EC01162F1B821A82EC
S113127088EE93E0A0E0B0E08C839D83AE83BF83CF
S113128089E991E0998388831F8A1E8A198E188EB2
S11312901B8E1A8E1D8E1C8E8E8D8E7F20FB81F9E7
S11312A08E8F642FCE010E94DF08612FCE01DF9163
S11312B0CF911F910C940809CF93DF93EC019A010D
S11312C0AB011B8E1A8E198E188E1F8A1E8A60E03F
S11312D079E08DE390E00E94CE0BF90124303105D2
S11312E018F0C901039702C081E090E09D8F8C8FB4
S11312F06C85663108F069C0C9019695879584317B
S1131300910510F0439702C081E090E09F8B8E8B93
S1131310369718F0C901059702C081E090E0998FD3
S1131320888FC901880F991F280F391F3695279573
S1131330369527952D30310518F02C50310902C00F
S113134021E030E03B8F2A8F90916800683050F0A4
S113135021E06E3008F420E081E001C0880F2A9576
S1131360EAF701C084E0892B809368008C8588307B
S113137038F08E3040F0863148F020E030E008C08C
S11313802DE630E005C02BE630E002C02CE630E06C
S11313903C8B2B8B883030F491E001C0990F8A95F7
S11313A0EAF70EC0282F30E08E3018F428503109A7
S11313B002C02E50310991E001C0990F2A95EAF735
S11313C09D8B8C8D9D8D0197F1F7CE01DF91CF918F
S11313D00C943508CF93DF93CDB7DEB769970FB67A
S11313E0F894DEBF0FBECDBF888F698F888D882F9C
S11313F090E086569F4F9A83898389819A81FC0164
S113140084918B838B818C83888D882F90E08A577D
S11314109F4F9E838D838D819E81FC0184918F8358
S11314208F8188878885882309F494C08885882FCC
S113143090E0880F991F88599F4F9A8789878985DB
S11314409A85FC0125913491CF013C872B879A879B
S113145089878B859C859E878D878885882F90E0DA
S1131460880F991F8E589F4F988B8F878F859889E7
S1131470FC0125913491CF013A8B298B988B8F876E
S113148089899A899C8B8B8B898D882331F58FE58B
S113149090E0FC0180818D8BF8948D859E85FC0104
S11314A08081982F8C8180958923282F8D859E8516
S11314B0FC0120838B899C89FC018081982F8C817D
S11314C080958923282F8B899C89FC0120838FE5B3
S11314D090E02D89FC0120833DC0898D823021F567
S11314E08FE590E0FC0180818E8BF8948D859E853C
S11314F0FC018081982F8C8180958923282F8D85EC
S11315009E85FC0120838B899C89FC0190818C81C0
S1131510292F282B8B899C89FC0120838FE590E05F
S11315202E89FC01208316C08FE590E0FC018081A8
S11315308F8BF8948D859E85FC0190818C81292F59
S1131540282B8D859E85FC0120838FE590E02F89D3
S1131550FC01208369960FB6F894DEBF0FBECDBFA1
S1131560DF91CF910895CF93DF931F92CDB7DEB76C
S113157089838981882F90E08330910591F08430AC
S1131580910534F48130910501F1029741F145C090
S11315908730910571F188309105A9F1049759F0CC
S11315A03CC080E890E020E830E0F90120812F770A
S11315B0FC01208332C080E890E020E830E0F901AB
S11315C020812F7DFC01208328C084E490E024E462
S11315D030E0F90120812F77FC0120831EC084E4D0
S11315E090E024E430E0F90120812F7DFC01208388
S11315F014C080EB90E020EB30E0F90120812F77DC
S1131600FC0120830AC080EB90E020EB30E0F9017C
S113161020812F7DFC01208300000F90DF91CF916A
S11316200895CF93DF93CDB7DEB765970FB6F894DF
S1131630DEBF0FBECDBF8C8B6D8B8C89882F90E065
S113164082559F4F9A83898389819A81FC01849171
S11316508B838B818C838C89882F90E086569F4F57
S11316609E838D838D819E81FC0184918F838F81E4
S113167088878C89882F90E08A579F4F9A8789871B
S113168089859A85FC0184918B878B858C878C85D1
S1131690882309F444C08C81882319F08C810E942A
S11316A0B30A8C85882F90E0880F991F8E589F4F1E
S11316B09E878D878D859E85FC0125913491CF0170
S11316C0388B2F879E878D878F8598899A8B898BF6
S11316D08FE590E0FC0180818B8BF8948D898823C1
S11316E071F489899A89FC018081982F8885809575
S11316F08923282F89899A89FC0120830BC0898931
S11317009A89FC0190818885292F282B89899A89B7
S1131710FC0120838FE590E02B89FC0120836596F2
S11317200FB6F894DEBF0FBECDBFDF91CF91089501
S113173097FB072E16F4009407D077FD09D00E947A
S1131740ED0B07FC05D03EF4909581959F4F0895CD
S1131750709561957F4F0895A1E21A2EAA1BBB1BB9
S1131760FD010DC0AA1FBB1FEE1FFF1FA217B30769
S1131770E407F50720F0A21BB30BE40BF50B661F7F
S1131780771F881F991F1A9469F760957095809543
S113179090959B01AC01BD01CF010895052E97FBE7
S11317A01EF400940E94E50B57FD07D00E94AC0B79
S11317B007FC03D04EF40C94E50B509540953095FE
S11317C021953F4F4F4F5F4F0895909580957095A9
S11317D061957F4F8F4F9F4F0895AA1BBB1B51E10B
S11317E007C0AA1FBB1FA617B70710F0A61BB70B8D
S11317F0881F991F5A95A9F780959095BC01CD0132
S11318000895EE0FFF1F0590F491E02D0994A0E0D8
S1131810B0E0EDE0FCE00C944D0D5C016B017A014D
S11318206115710519F0FB0191838083E114F104C2
S113183029F0C7010297839708F0F1C0E5012196CA
S1131840F5011081812F90E00E941D0D892B11F06C
S11318505E01F4CF1D3229F42196F501118101E0D6
S113186007C01B3221F4E5012296F501118100E045
S1131870E114F10459F1F0E1EF16F10461F41033CD
S1131880E1F488818F7D883569F51981229602609B
S113189070E1E72EF12C88E0E816F10439F12CF41C
S11318A0F2E0EF16F104C9F12AC08AE0E816F10467
S11318B079F0E0E1EE16F10411F550E1E52EF12C9A
S11318C0812C912CA12C68E0B62E2CC01033C9F2C7
S11318D03AE0E32EF12C4CEC842E982CA82C4CE00E
S11318E0B42E20C010E3E114F104A9F698E0E92E27
S11318F0F12C812C912CA12C20E1B22E13C060E09C
S113190070E080E090E897010F2C000C440B550B1D
S11319100E94AC0B49015A0105C0812C912CA12CC9
S113192080E4B82E60E020E030E0A90127010F2C0C
S1131930000C660877081E01E0EDE10FEA3060F064
S11319408FEB810F8A3110F4E9EC05C08FE9810F28
S11319508A3128F5E9EAE10F8E2F90E08E159F0574
S1131960F4F467FD18C082169306A406B50690F039
S1131970C301B2010E94320D9B01AC012E0F311D37
S1131980411D511D213031054105F0E85F0710F478
S113199061E001C06FEF2196F1011081CCCF802F5F
S11319A08170C114D10471F0662329F02197F601E6
S11319B0D183C08307C001FF19C02297F601D183E8
S11319C0C08314C067FF12C0811105C02FEF3FEF21
S11319D04FEF5FE704C020E030E040E050E882E2EF
S11319E090E09093700380936F0316C0882341F0B6
S11319F050954095309521953F4F4F4F5F4F0CC008
S1131A0057FF0AC082E290E09093700380936F03C3
S1131A102FEF3FEF4FEF5FE7B901CA0104C060E069
S1131A2070E080E090E0CDB7DEB7E2E10C94690DA0
S1131A3081E090E0F8940C94930D91110C942F0D87
S1131A40803219F089508550C8F70895FC0101903F
S1131A500020E9F7809590958E0F9F1F0895992790
S1131A6088270895DB018F939F930E94420DBF91B5
S1131A70AF91A29F800D911DA39F900DB29F900DD9
S1131A80112408950E94840DA59F900DB49F900D7C
S1131A90A49F800D911D112408952F923F924F927F
S1131AA05F926F927F928F929F92AF92BF92CF92EA
S1131AB0DF92EF92FF920F931F93CF93DF93CDB7F3
S1131AC0DEB7CA1BDB0B0FB6F894DEBF0FBECDBF6B
S1131AD009942A88398848885F846E847D848C843C
S1131AE09B84AA84B984C884DF80EE80FD800C8145
S1131AF01B81AA81B981CE0FD11D0FB6F894DEBF28
S1131B000FBECDBFED010895A29FB001B39FC001E8
S1131B10A39F700D811D1124911DB29F700D811D15
S1131B201124911D089510E0C3E6D0E004C0FE0125
S1131B300E94010C2196C436D107C9F7F894FFCF4F
S1131B400D0A006E616E00696E66006F7666002E87
S1131B500024504D544B3232302C313030302A3145
S1131B60460024504D544B3330302C313030302C1F
S1131B70302C302C302C302A31430024504D544B1F
S1131B803331342C302C312C302C302C302C302C64
S1131B90302C302C302C302C302C302C302C302C61
S1131BA0302C302C302C302C302A323900000000FC
S1131BB0005003D1056502B2028602ED0200000066
S1131BC0007307D1057307730773077307000000D9
S1131BD0007307D105000000009A07D105070879B2
S1091BE007EF07EE070009
S9030000FC
